:100000000C9423010C944B010C944B010C944B0168
:100010000C944B010C944B010C944B010C944B0130
:100020000C944B010C944B010C94CC080C94670A73
:100030000C944B010C944B010C944B010C944B0110
:100040000C944B010C944B010C944B010C944B0100
:100050000C944B010C944B010C944B010C94110427
:100060000C944B010C944B010C944B010C944B01E0
:100070000C944B010C944B010C944B010C944B01D0
:100080000C944B010C944B010C944B010C944B01C0
:100090000C94E1040C944B010C944B010C944B0117
:1000A0000C944B010C944B010C944B012C032F032B
:1000B0001E03220326035003500350033303370368
:1000C0003B034103450350034B03AB06B006B506A3
:1000D000BF06C906130713071307D306DD06E70695
:1000E000F106FE0613070607070605040100080AC5
:1000F0000B0C0D0900000000240027002A002D0031
:10010000300000000000250028002B002E003100E8
:1001100004040404040304050202020204030202AC
:10012000020206060606060604040202020404048D
:1001300008020110408040102040804080080204E6
:10014000018040201002011080102040402000005B
:10015000000200090F0000030401000C0000000071
:1001600000000000000000000000000000080B007C
:10017000020202010009040000010202000005243D
:1001800000100105240101010424020605240600D3
:10019000010705810310004009040100020A000064
:1001A000000705020240000007058302400000042A
:1001B00003090441726475696E6F204C4C43004121
:1001C000726475696E6F204C656F6E6172646F004A
:1001D00012010002000000404123368000010102AC
:1001E000030112010002EF020140412336800001A9
:1001F0000102030105010904A10185060509190190
:100200002920150025017501952081020501A10015
:10021000093009310933093416008026FF7F751033
:1002200095048102093209351580257F75089502EC
:100230008102C005010939093915012508950275A2
:10024000048102C0BC1211241FBECFEFDAE0DEBF72
:10025000CDBF22E0AEE5B1E001C01D92AA3EB207DB
:10026000E1F711E0A0E0B1E0E4E8F7E202C00590B8
:100270000D92AE35B107D9F711E0C3E2D1E004C069
:100280002197FE010E943C13C232D107C9F70E9498
:10029000330D0C94C0130C9400003FB7F894809178
:1002A0003E0290913F02A0914002B091410226B5DA
:1002B000A89B05C02F3F19F00196A11DB11D3FBF9E
:1002C000BA2FA92F982F8827820F911DA11DB11D2C
:1002D000BC01CD0142E0660F771F881F991F4A9528
:1002E000D1F70895DC01FB0112968C91129790E0F2
:1002F0002481358182179307D1F491818081813ADD
:1003000031F481E0913091F0933089F411C0813261
:1003100071F49B3021F482811F968C9305C09A3032
:1003200031F4828150968C9381E00895089580E0A5
:100330000895DC01FB0188E4808389E4818384E4FF
:1003400082831D969C911D979F709F5B93831D9642
:100350008D919C911E9724E0969587952A95E1F7BB
:100360008F708F5B848385E00895FC0182818F5BB1
:10037000FB01808381E0089585ED8093BC0080912E
:10038000BC0084FDFCCF10928901089540911402B5
:10039000262F30E0240F311D21323105DCF420916D
:1003A00089012430C9F4FC0180E090E0861758F4FC
:1003B000309114022191DC01AE50BE4FA30FB11D4C
:1003C0002C930196F3CF80911402680F609314026E
:1003D00080E0089581E0089582E008950895E09115
:1003E000620180916101E81730F4F0E0EE52FE4FB7
:1003F000808190E008958FEF9FEF089590916201C2
:1004000080916101981750F4E92FF0E0EE52FE4F11
:10041000208130E09F5F9093620102C02FEF3FEF99
:10042000C90108958091610190E020916201821BD1
:1004300091090895CF92DF92EF92FF920F931F934D
:10044000CF93DF937C01262F972F8A0180918A0119
:10045000882391F0C62FD72F6E01C40ED51ECC1560
:10046000DD0571F06991D701ED91FC910190F0816A
:10047000E02DC7010995F3CF642F822F0E94C6019A
:10048000C801DF91CF911F910F91FF90EF90DF9006
:10049000CF900895CF93DF931F92CDB7DEB76983D6
:1004A00020918A012223D1F02091AC01203240F02A
:1004B00021E030E0FC013383228380E090E015C02E
:1004C00080918B01E82FF0E0E457FE4F99819083F3
:1004D0008F5F80938B018093AC0105C061E0CE01FA
:1004E00001960E94C60181E090E00F90DF91CF91CC
:1004F0000895EF92FF920F931F93CF93DF93FB0129
:100500002081213851F52381223239F5DC01129600
:100510002C9130E04481558142175307F1F4EC01EE
:100520000B851C85E12CF12C0115110591F0F801CA
:10053000448155816281738180E80E943E098F3F2A
:10054000FFEF9F0769F0E80EF91ED8010D911C918D
:10055000EBCF81E08F87C70105C080E090E002C04B
:100560008FEF9FEFDF91CF911F910F91FF90EF9051
:100570000895CF93DF93CDB7DEB769970FB6F894A0
:10058000DEBF0FBECDBFFC01DB018C918F5F8C9372
:10059000BE016F5F7F4F89E1DB011D928A95E9F70C
:1005A00029E0298384E08A8391E09D8383E08E8320
:1005B0002A8721E22B879C879D879F8722E2288BB1
:1005C00027E02B8B25E02C8B8E8B20E430E0388FBE
:1005D0002F8B998F82818B8395858685998B8A8BCA
:1005E000838180688D8B49E150E080E00E943E0964
:1005F00069960FB6F894DEBF0FBECDBFDF91CF91E5
:100600000895362F90E0FC01E25BFE4F4491FC011F
:10061000E15DFE4F2491FC01E05FFE4F8491882351
:1006200009F451C04423E1F150E0FA013197EF3071
:10063000F105B0F5EA5AFF4F0C943C1390918000FD
:100640009F7707C0909180009F7D03C090918000AC
:10065000977F9093800024C094B59F7702C094B593
:100660009F7D94BD1DC0909190009F7707C0909191
:1006700090009F7D03C090919000977F9093900091
:100680000FC09091C0009F7703C09091C0009F7DE4
:100690009093C00005C09091C200977F9093C200D4
:1006A000E82FF0E0EE0FFF1FEE5FFE4FA591B49133
:1006B0008FB7F894EC91311103C020952E2301C01F
:1006C0002E2B2C938FBF0895CF93DF9390E0FC01E6
:1006D000E15DFE4F2491FC01E05FFE4F8491882391
:1006E00061F190E0880F991FFC01EC50FF4FC5911C
:1006F000D491FC01EE5FFE4FA591B491611109C048
:100700009FB7F8948881209582238883EC912E23CB
:100710000BC0623061F49FB7F8943881822F8095C6
:1007200083238883EC912E2B2C939FBF06C08FB719
:10073000F894E8812E2B28838FBFDF91CF91089505
:10074000823108F08251E82FF0E0E851FF4FE49148
:1007500080917B00E3FB222720F930E095E0220F17
:10076000331F9A95E1F78F7D282B20937B00E7704C
:10077000E064E0937C0080917A00806480937A004A
:1007800080917A0086FDFCCF8091780020917900DD
:1007900090E0922B08958F929F92AF92BF92CF924A
:1007A000DF92EF92FF926B017C010E944D014B01A1
:1007B0005C01C114D104E104F104F1F00E944D0187
:1007C000DC01CB0188199909AA09BB09883E93402D
:1007D000A105B10570F321E0C21AD108E108F108C2
:1007E00088EE880E83E0981EA11CB11CC114D104B0
:1007F000E104F10419F7DDCFFF90EF90DF90CF9087
:10080000BF90AF909F908F9008952FB7F89460910C
:100810003A0270913B0280913C0290913D022FBFC1
:1008200008951F920F920FB60F9211242F933F93AA
:100830008F939F93AF93BF9380913A0290913B0225
:10084000A0913C02B0913D023091390223E0230F88
:100850002D3720F40196A11DB11D05C026E8230FF8
:100860000296A11DB11D2093390280933A02909304
:100870003B02A0933C02B0933D0280913E029091D6
:100880003F02A0914002B09141020196A11DB11D0D
:1008900080933E0290933F02A0934002B0934102A6
:1008A000BF91AF919F918F913F912F910F900FBE6C
:1008B0000F901F901895CF93DF93EC0181E08C830C
:1008C0008D839E01265F3F4F3F832E8319861886B6
:1008D0002FE231E0398328831C861B861E861D8605
:1008E0008F87888B81EC8A870E94210AFC012181F5
:1008F0008C8190E0820F911D089774F5A281B381DD
:10090000109719F4D383C2830CC018968D919C91D3
:100910001997009711F0DC01F8CF1996DC93CE936C
:10092000189780818A8381818B8390818D81890F43
:10093000808380E09C81891778F4AE81BF81A80F05
:10094000B11D9C91A181B0E0AC5EBE4F9C939181A2
:100950009F5F91838F5FEECFDF91CF910895EF92EC
:10096000FF920F931F93CF93DF931F92CDB7DEB704
:100970008B017A018091B702811107C086EA92E06B
:100980000E945B0481E08093B70286E0898341E0A6
:1009900050E0BE016F5F7F4F8091A9020E94650900
:1009A00097FD07C08091A902A701B80180640E9449
:1009B00065090F90DF91CF911F910F91FF90EF90FC
:1009C00008951F920F920FB60F9211242F933F9309
:1009D0004F935F936F937F938F939F93AF93BF9347
:1009E000EF93FF938091B900887F803609F49CC013
:1009F00068F5883209F45BC090F4803109F454C082
:100A000038F4882309F4F6C0883009F44DC0F6C0E4
:100A1000883109F44CC0803209F45DC0EFC08034E5
:100A200009F468C048F4803309F455C0883309F0EC
:100A3000E5C080938701D8C0803509F44FC0883560
:100A400009F45DC0883409F0D9C0D6C0883909F4EA
:100A5000C7C0A8F4883709F467C038F4883609F4A9
:100A600063C0803709F460C0C9C0883809F4B8C0D1
:100A7000803909F45FC0803809F0C0C05BC0803B9A
:100A800009F486C038F4803A09F466C0883A09F45B
:100A90007FC0B4C0803C09F4A7C0883C09F4A4C05E
:100AA000883B09F48AC0AAC08091640110C090916B
:100AB000860180918501981770F5E091860181E0AB
:100AC0008E0F80938601F0E0EB59FE4F808180937A
:100AD000BB0085EC86C0809387018EC0E0918601C3
:100AE00081E08E0F809386018091BB00F0E0EB598E
:100AF000FE4F808390918601809185016EC0E091C8
:100B0000860181E08E0F809386018091BB00F0E02A
:100B1000EB59FE4F80838091880181116DC081E087
:100B20008093630184EA61C083E08093890110921D
:100B30003802CFCF80913802803208F051C0E09166
:100B4000380281E08E0F809338028091BB00F0E084
:100B5000E85EFD4F8083BDCF85EC8093BC00109292
:100B6000890180913802803230F4E0913802F0E05F
:100B7000E85EFD4F10826091380270E0E09116024D
:100B8000F091170288E192E009951092380236C080
:100B900084E0809389011092150210921402E09172
:100BA0001202F0911302099580911402811105C07F
:100BB00081E0809314021092F201E091150281E02D
:100BC0008E0F80931502F0E0EE50FE4F80818093EF
:100BD000BB009091150280911402981708F479CF08
:100BE00085E88093BC000AC085EC8093BC0010921D
:100BF000890104C0109287010E94BC01FF91EF910E
:100C0000BF91AF919F918F917F916F915F914F9124
:100C10003F912F910F900FBE0F901F9018950F933B
:100C20001F93CF93DF9300E011E0C0E0D0E0CE014E
:100C30000E944713F80181938F012196C431D10599
:100C4000B1F7DF91CF911F910F9108950F931F93EB
:100C5000CF93DF9300E011E0C0E0D0E0F8016191B4
:100C60008F01CE010E944F132196C431D105B1F7F7
:100C7000DF91CF911F910F910895882329F081E092
:100C80008093030160E003C01092030161E08BE0F8
:100C90000E9464030C942606882341F081E080932F
:100CA000020160E089E00E94640310C0109202011A
:100CB00061E089E00E94640361E089E00E94010331
:100CC00064EF71E080E090E00E94CB030C94260674
:100CD0001F93CF93DF9390910101813051F49B3E9C
:100CE000B8F4913E10F4965F0EC08BEE8093010134
:100CF0000FC0823069F4992359F0292F30E02B304E
:100D0000310524F09A509093010102C01092010124
:100D100010910101C12FD0E061E08AE00E946403DC
:100D2000209711F460E004C0CF3FD10529F461E0C1
:100D30008AE00E9401037CC0E8E5F1E0E4918E2F97
:100D400090E0FC013197EF30F10508F06CC0EB59F1
:100D5000FF4F0C943C1384B5806884BD17BD68C0F8
:100D600084B5806284BD18BD63C0809180008068B6
:100D700080938000D0938900C093880059C08091EF
:100D80008000806280938000D0938B00C0938A00A3
:100D90004FC080918000886080938000D0938D0048
:100DA000C0938C0045C08091900080688093900033
:100DB000D0939900C09398003BC0809190008062CE
:100DC00080939000D0939B00C0939A0031C0809193
:100DD0009000886080939000D0939D00C0939C0009
:100DE00027C08091C00080688093C0008091C000BF
:100DF0008F7B8093C0001093CF001AC08091C000F9
:100E000080628093C0001093D00012C08091C20015
:100E100088608093C2008091C2008B7F8093C20063
:100E20001093D20005C0C038D1050CF080CF7ACF26
:100E3000DF91CF911F910C942606CF938091890169
:100E40008111FCCF81E080938901809388019FEF1D
:100E500090938701109286018093850180936401AD
:100E60008091640188648093640180916301813082
:100E700061F410926301809164018093BB008091C2
:100E8000BC0083FDF8CF85EC01C085EE8093BC00EB
:100E9000809189018130E1F380918601823018F4DC
:100EA0008091860101C082E0A5E6B1E022ED31E04B
:100EB000F9019E2F921B981718F49D919193F9CFE9
:100EC0001092620180936101C0E090916101809174
:100ED00062019817E9F180ED92E00E94FE01AC01F9
:100EE0005527CC23D1F08093BD0120E030E0CA012A
:100EF000022E02C0959587950A94E2F78170992792
:100F000061E086278170F901EB54FE4F80832F5FEB
:100F10003F4F2830310559F719C08093BE0120E0BA
:100F200030E0CA01022E02C0959587950A94E2F737
:100F30008170992761E086278170F901E355FE4FA2
:100F400080832F5F3F4F2830310559F7CF5FBDCFEA
:100F5000CF910895409151025091520220914F0239
:100F60003091500242175307B4F49091E800957005
:100F7000E1F39091E80092FD19C08093F100809117
:100F800051029091520201968F739927892B19F47F
:100F90008EEF8093E8008091510290915202019669
:100FA000909352028093510281E0089580E0089569
:100FB000CF92DF92EF92FF920F931F93CF93DF9325
:100FC0001F92CDB7DEB7182F062FE42E862F880F7D
:100FD0008E5F99830E94AA0783E00E94AA07F12EE0
:100FE000C12E9981D92E8C2D8F19801798F4F60176
:100FF000E7FE02C0849101C080810E94AA07182FD9
:1010000080E00E94AA078123FFEFCF1ADF0A811137
:10101000EACF01C081E00F90DF91CF911F910F9136
:10102000FF90EF90DF90CF900895615030F02091C5
:10103000F100FC0120830196F8CF289884E6809384
:1010400054020895CF92DF92EF92FF920F931F9375
:10105000CF93DF936C017A018B01C0E0D0E0CE1515
:10106000DF0589F0D8016D918D01D601ED91FC91DC
:101070000190F081E02DC6010995892B11F47E01C4
:1010800002C02196ECCFC701DF91CF911F910F9144
:10109000FF90EF90DF90CF900895CF93DF931F9252
:1010A000CDB7DEB76983DC01ED91FC910280F3815D
:1010B000E02D41E050E0BE016F5F7F4F09950F903A
:1010C000DF91CF91089583E08093E9008091F20051
:1010D000882319F08AE38093E8000895FC01848551
:1010E000958597FD0BC09FB7F89482E08093E90047
:1010F0008091F2009FBF90E0019608959FB7F89409
:1011000082E08093E9008091F2009FBF90E0089513
:101110000E9442130F931F93CF93DF931F92CDB77B
:10112000DEB78C01FC018485958597FF0EC0CE014A
:1011300001960E94B20C019719F4298130E002C097
:101140002FEF3FEFF80135872487F80184859585D7
:101150000F90DF91CF911F910F910895CF93DF935F
:101160001F92CDB7DEB7FC018485958597FD05C03C
:101170002FEF3FEF358724870BC0CE0101960E94E9
:10118000B20C019719F4898190E002C08FEF9FEFB4
:101190000F90DF91CF9108951F920F920FB60F928B
:1011A00011248F939F938091E1009091E100937FB0
:1011B0009093E10083FF0FC01092E90091E09093BB
:1011C000EB001092EC0092E39093ED001092550228
:1011D00098E09093F00082FF20C093E09093E900A4
:1011E0009091F200992319F09AE39093E80090917E
:1011F0005302992339F090915302915090935302E6
:10120000992389F190915402992339F090915402D5
:10121000915090935402992341F184FF10C0809122
:10122000E2008E7E81608093E2008091E1008F7EFB
:101230008093E10080915F018E7E806111C080FF0C
:1012400016C08091E2008E7E80618093E2008091E2
:10125000E1008E7E8093E10080915F018E7E81604F
:1012600080935F0104C05D9ACDCF289AD6CF9F911D
:101270008F910F900FBE0F901F901895DF92EF92F5
:10128000FF920F931F93CF93DF93D82E8A017B0198
:10129000E40EF51EEB01CE15DF0571F0D7FE03C09D
:1012A000FE01849101C088810E94AA0721968111C4
:1012B000F2CF8FEF9FEF01C0C801DF91CF911F9157
:1012C0000F91FF90EF90DF9008958F929F92AF92D1
:1012D000BF92CF92DF92EF92FF920F931F93CF9323
:1012E000DF9300D01F92CDB7DEB7382F8B018091EE
:1012F0005502811103C08FEF9FEF7DC080915F0188
:1013000080FF05C08091E00082608093E0004A0188
:101310008AEFF82E832F8770E82E9FE3C92E832F44
:101320008072B82E2AE3D22E832F8074A82E8114C7
:10133000910409F457C08FB7F894E092E9009091B6
:10134000E80095FF05C09091F2002C2D291B01C0EB
:1013500020E08FBF211110C0FA94FF2061F261E0FC
:1013600070E080E090E039834A835B830E94CB0386
:1013700039814A815B81DBCF822F90E08816990604
:101380000CF4282D6FB7F894E092E9008091E80002
:1013900085FF26C0822F90E0881A990ABB2029F089
:1013A0002150A8F01092F100FBCFF80137FF07C0E1
:1013B000215058F074917093F1003196F9CF21507B
:1013C00020F071917093F100FACF080F191F8091EE
:1013D000E80085FF0DC08114910411F4A11008C02C
:1013E0006FBFA5CF5D9884E680935302CA0103C006
:1013F000D092E800F5CF0F900F900F90DF91CF9132
:101400001F910F91FF90EF90DF90CF90BF90AF9022
:101410009F908F900895CF93DF93EC0180912601E8
:10142000882331F083E00E9465091816190634F00C
:1014300081E090E09B838A8380E090E0DF91CF9110
:1014400008958091460281110DC082E0809342028E
:1014500084E080934302109245021092440281E09E
:101460008093460282E492E008950F931F93CF93F6
:10147000DF931F92CDB7DEB782E0898342E450E06C
:101480006DE671E080E80E943E090E94210ADC01BD
:1014900012960D911C9113970115110569F0D80151
:1014A000ED91FC910280F381E02DBE016F5F7F4FD3
:1014B000C801099597FF07C089810F90DF91CF91EF
:1014C0001F910F910895F80100851185E5CF1F92B6
:1014D0000F920FB60F921124CF92DF92EF92FF92EC
:1014E0000F931F932F933F934F935F936F937F932C
:1014F0008F939F93AF93BF93EF93FF93CF93DF931C
:10150000CDB7DEB76C97DEBFCDBF1092E9008091FA
:10151000E80083FFFAC168E0CE0145960E941508F5
:1015200082EF8093E8008D8987FF05C09091E800E5
:1015300090FFFCCF03C09EEF9093E800982F907629
:1015400009F0C6C09E892F89188D91110CC0803872
:1015500029F4809160018093F10002C01092F100A3
:101560001092F10047C1422F50E0512B913051F4BD
:10157000811140C14130510509F03CC180916001A9
:101580008D7F0BC0933061F4811134C1413051051E
:1015900009F030C1809160018260809360012AC1AE
:1015A000953041F48091E80080FFFCCF20682093C3
:1015B000E30020C1963009F05FC0EB8CFC8C1092E8
:1015C000E9001092520210925102123091F51092DD
:1015D000500210924F020E94350A99E0BE016F5FDF
:1015E0007F4FDB01E92F1D92EA95E9F799831A8372
:1015F00091E09E8390EA98879AEF99872091510213
:1016000030915202275F3F4F3C832B838D83109292
:10161000E9001092520210925102F0925002E092B0
:101620004F0249E050E080E00E943E090E94350AE6
:10163000E1C0F0925002E0924F020E94210ADC01C8
:101640001296ED90FC901397E114F10409F4C0C0D8
:10165000D701ED91FC910480F581E02DBE016B5E18
:101660007F4FC7010995009719F00CF0C3C0C6C0A1
:10167000F701E084F184E8CF973009F4BFC09830D7
:1016800021F481E08093F100B5C0993009F0B2C037
:10169000837009F0B3C0E5E1F1E081E021E036E3D9
:1016A0009081992361F08093E9002093EB00919160
:1016B0009093EC003093ED008F5F873089F78EE7D1
:1016C0008093EA001092EA008F898093550292C0BD
:1016D0008B8D9C8D1092E900109252021092510253
:1016E0009093500280934F02898D811156C08E894C
:1016F0009D89913A59F4813209F080C047E050E069
:101700006FE171E080E00E943E0974C0913209F0FF
:1017100075C0833289F4888D90E0982F88272F89AF
:10172000822BA0E0B0E080931B0190931C01A0935A
:101730001D01B0931E015EC0803269F48091E80003
:1017400082FFFCCF67E08FE191E00E9415088BEFEC
:101750008093E80006C0823209F04CC08F898093E4
:10176000260180915E01882319F0EEEFFAE002C0B5
:10177000E0E0F8E080911F0190912001A09121010B
:10178000B0912201803B9440A105B10509F088C0C9
:101790008091260180FFA0C083C00E94210ADC0145
:1017A00012960D911C9113970115110539F1D8016D
:1017B000ED91FC910190F081E02DBE016B5E7F4FB9
:1017C000C8010995811116C0F80100851185ECCF7B
:1017D0001130C1F0133091F48F89882309F455C07A
:1017E0008230E9F440E860E18FEB91E00E94D80795
:1017F000882321F08EEF8093E80087C081E28093F8
:10180000EB0083C08B8D9C8D089711F410934E02D2
:1018100080914E02811136C060ED71E038C0813098
:1018200029F440E86BE083EB91E0E0CF833031F7BF
:101830000E94210ADC011296ED90FC9013978E0114
:101840000F5F1F4F6801E114F10479F0D701ED91AA
:10185000FC910680F781E02DB801C7010995080FBA
:10186000111DF701E084F184EECFD8011C92F6013E
:1018700001900020E9F73197BF016C197D0940E024
:10188000C601B4CF62EE71E002C06FEA71E061158B
:10189000710509F4B3CFFB01449150E080E833CFE8
:1018A0000FB6F894A89580916000886180936000DD
:1018B000109260000FBEA895EE3F2AE0F20739F0C3
:1018C0008091FE0A9091FF0A9183808393CF1092BA
:1018D000FF0A1092FE0A8ECFEE3F8AE0F80731F041
:1018E000808191819093FF0A8093FE0A87E797E7B2
:1018F000918380839BE088E10FB6F894A89580934C
:1019000060000FBE9093600075CF6C960FB6F89490
:10191000DEBF0FBECDBFDF91CF91FF91EF91BF91A1
:10192000AF919F918F917F916F915F914F913F9177
:101930002F911F910F91FF90EF90DF90CF900F901C
:101940000FBE0F901F901895E091BF02F091C0025A
:101950000190F081E02D4FE050E061EC72E08FEB00
:1019600092E00994FC0180915502811103C08FEF30
:101970009FEF08959FB7F89482E08093E90020914B
:10198000F20030E01216130614F421E030E02115C5
:10199000310559F0289884E6809354028091F10033
:1019A00080838091F200882319F09FBFC9010895B8
:1019B0008BE68093E800F9CF8F929F92AF92BF920F
:1019C0000F931F93CF93DF93CDB7DEB7A1970FB6D9
:1019D000F894DEBF0FBECDBF19A2423008F44AE032
:1019E0008E010F5D1F4F842E912CA12CB12CA501CF
:1019F00094010E948F13E62FB901CA010150110909
:101A0000EA3014F4E05D01C0E95CD801EC93232BCB
:101A1000242B252B61F701151105A1F0F801019088
:101A20000020E9F73197AF01401B510BE0915602BE
:101A3000F09157020280F381E02DB80186E592E033
:101A4000099502C080E090E0A1960FB6F894DEBF41
:101A50000FBECDBFDF91CF911F910F91BF90AF907F
:101A60009F908F900895789484B5826084BD84B5EA
:101A7000816084BD85B5826085BD85B5816085BD89
:101A800080916E00816080936E0010928100809141
:101A900081008260809381008091810081608093C9
:101AA000810080918000816080938000809191000E
:101AB0008260809391008091910081608093910079
:101AC000809190008160809390008091C10084603B
:101AD0008093C1008091C10082608093C100809199
:101AE000C10081608093C1008091C30081608093B8
:101AF000C3008091C00082608093C0008091C200CA
:101B000081608093C20080917A00846080937A0023
:101B100080917A00826080937A0080917A0081605F
:101B200080937A0080917A00806880937A00109286
:101B300055021092600110925F018091D700816080
:101B40008093D70080EA8093D80089B5806189BDF1
:101B500089B5826089BD09B400FEFDCF61E070E007
:101B600080E090E00E94CB038091D8008F7C806160
:101B70008093D8008091E000807F8093E000809186
:101B8000E1008E7E8093E1008DE08093E200559A23
:101B9000209AEEEFFFE7859194918B3F9C4D19F4CD
:101BA00081E080935E0168EE73E080E090E00E9447
:101BB000CB038FEF9FEF909363028093620261E00B
:101BC00086E00E94640361E088E00E946403C4E050
:101BD00061E086E00E94010362E370E080E090E053
:101BE0000E94CB0360E086E00E94010362E370E0A4
:101BF00080E090E00E94CB0361E088E00E94010356
:101C000062E370E080E090E00E94CB0360E088E057
:101C10000E94010362E370E080E090E00E94CB0349
:101C2000C150B1F661E08AE00E94640361E08DE09A
:101C30000E9464036AE070E080E090E00E94CB03C1
:101C400061E08DE00E94010360E087E10E9464038F
:101C500060E088E10E94640360E08DE10E9464031B
:101C600060E085E10E94640360E084E10E94640317
:101C700080E090E00E944713823011F00E94260617
:101C80000E940F06809101010E94680681E09091F8
:101C90000201911101C080E00E944C0681E0909108
:101CA0000301911101C080E00E943D068091040172
:101CB000882321F081E08093040102C01092040186
:101CC0000E942606109262011092610110928B010F
:101CD0001092AC0110928901C1E0C093880110926A
:101CE000630161E082E00E94010361E083E00E9401
:101CF00001038091B9008E7F8093B9008091B90073
:101D00008D7F8093B90088E48093B80085E4809348
:101D1000BC00C0938A0184E28093BF0110928B01C2
:101D20001092AC0160E080ED92E00E944A02809146
:101D3000AC01813208F045C0909189019111FCCF2E
:101D400092E09093890191E0909388019FEF9093A6
:101D500087011092860180938501ACE8B1E025E609
:101D600031E0F9019E2F921B981718F49D919193E1
:101D7000F9CF1092640180916401886480936401BA
:101D800080916301813061F410926301809164015C
:101D90008093BB008091BC0083FDF8CF85EC01C02F
:101DA00085EE8093BC00809189018230E1F38091BF
:101DB00087018F3F31F080918701803211F080914F
:101DC000870110928B011092AC0110928A010E943F
:101DD0001D078091B401882309F47CC088E10E942A
:101DE000A0038C014C018DE10E94A003EC011C01B9
:101DF0000E9405042B013C017E0168010E9405043C
:101E0000DC01CB0184199509A609B70980319742F5
:101E1000A105B105D0F561E086E00E94010361E013
:101E200088E00E94010388E10E94A0035C0161E058
:101E300070E080E090E00E94CB038DE10E94A0035F
:101E4000A016B10608F485018C179D0708F4EC0173
:101E5000CA14DB0408F46501E816F90608F47C01ED
:101E600064E670E080E090E00E94CB0360E086E0F2
:101E70000E94010360E088E00E94010364E670E0D4
:101E800080E090E00E94CB03B9CFC818D908E218CF
:101E9000F3080819190910930A0100930901C219DE
:101EA000D309D0930C01C0930B01D0920E01C092C4
:101EB0000D01F0921001E0920F01909206018092C4
:101EC0000501309208012092070181E080931301FF
:101ED0000E9426068FE0E1ECF2E0DF011D928A9578
:101EE000E9F7E091BF02F091C0020190F081E02D8E
:101EF0004FE050E061EC72E08FEB92E00995C0E0BA
:101F0000D0E00E9405040091CD011091CE012091F6
:101F1000CF013091D001DC01CB01801B910BA20BD2
:101F2000B30B4197A105B10508F46BC261E086E0EF
:101F30000E9401030E941D078091CF02807F809341
:101F4000CF029091B1019923A1F085608093CF02D7
:101F50009091B001992321F0807F86608093CF0219
:101F60008091B201882351F18091CF02807F8460FB
:101F700023C09091AF019923A1F081608093CF029B
:101F80009091B001992321F0807F88608093CF02E7
:101F90008091B201882391F08091CF02807F82608E
:101FA0000BC09091B001992311F0876005C090910A
:101FB000B201992319F083608093CF022091B6017A
:101FC0008091C1029091C202A091C302B091C4025B
:101FD000222311F0816001C08E7F8093C102909313
:101FE000C202A093C302B093C4022091B5018091B4
:101FF000C1029091C202A091C302B091C4022223F7
:1020000011F0826001C08D7F8093C1029093C20263
:10201000A093C302B093C4022091B8018091C10281
:102020009091C202A091C302B091C402222311F088
:10203000846001C08B7F8093C1029093C202A09301
:10204000C302B093C4022091B7018091C102909164
:10205000C202A091C302B091C402222311F0886091
:1020600001C0877F8093C1029093C202A093C302F4
:10207000B093C4022091B4018091C1029091C20238
:10208000A091C302B091C402222311F0806101C06B
:102090008F7E8093C1029093C202A093C302B0933B
:1020A000C4022091B3018091C1029091C202A0911B
:1020B000C302B091C402222311F0806201C08F7D5F
:1020C0008093C1029093C202A093C302B093C40252
:1020D0002091AE018091C1029091C202A091C302F1
:1020E000B091C402222311F0806401C08F7B8093E1
:1020F000C1029093C202A093C302B093C402209184
:10210000AD018091C1029091C202A091C302B09131
:10211000C402222311F0806801C08F778093C1022E
:102120009093C202A093C302B093C4022091BA015B
:102130008091C1029091C202A091C302B091C402E9
:10214000222311F0916001C09E7F8093C102909381
:10215000C202A093C302B093C4022091B90180913E
:10216000C1029091C202A091C302B091C402222385
:1021700011F0926001C09D7F8093C1029093C202D2
:10218000A093C302B093C4028091C001811102C028
:102190000E94A40C80911301882309F4D0C088E127
:1021A0000E94A0038C018DE10E94A00320910501F3
:1021B00030910601A801421B530B9A01409107017F
:1021C000509108018C01041B150BE0901101F09057
:1021D0001201E216F3061CF42E193F090CC08827E1
:1021E00099278E199F09281739071CF42E0D3F1DBA
:1021F00002C020E030E08090090190900A0152E393
:10220000850E911C092C000CAA08BB08C901330FCC
:10221000AA0BBB0B9C01AD01281939094A095B09BE
:10222000ACE4BFEF0E947C1320910D0130910E01B0
:10223000225331092901330F66087708A30192015F
:10224000281939094A095B090E945D1357FD0EC020
:102250002D348FEF3807410551056CF4DA01C901BF
:10226000865A9F47A109B1096C0109C09AE5C92E98
:1022700090E8D92E04C086EAC82E8FE7D82EE01643
:10228000F10624F498012E193F090DC088279927DB
:102290008E199F090817190724F498012E0D3F1D68
:1022A00002C020E030E080900B0190900C01A2E38E
:1022B0008A0E911C092C000CAA08BB08C901330F17
:1022C000AA0BBB0B9C01AD01281939094A095B090E
:1022D000A4EBB0E00E948A1320910F01309110010D
:1022E000225331098901330F220B330BA9019801C5
:1022F000281939094A095B090E945D13243B3105FD
:10230000BFEF4B075B076CF0121613061406150699
:102310005CF0DA01C9018A559048AF4FBF4F9C016C
:1023200005C02AE530E802C026EA3FE7D092C6029F
:10233000C092C5023093C8022093C70208C0109211
:10234000C6021092C5021092C8021092C702809174
:10235000C001811102C00E94A40C8091C001882399
:1023600009F441C08091AF01882319F082E00E94F6
:1023700068068091B101882319F081E00E94680607
:102380008091B601882319F081E00E944C0680916B
:10239000B501882319F080E00E944C068091B701B6
:1023A000882319F081E00E943D068091B8018823BE
:1023B00019F080E00E943D068091B401882329F045
:1023C00081E0809304010E9426068091B301882356
:1023D00021F0109204010E94260668EC70E080E073
:1023E00090E00E94CB0360E086E00E9401030E941F
:1023F00005046093CD017093CE018093CF0190933B
:10240000D0010E9405040091C9011091CA012091D8
:10241000CB013091CC01DC01CB01801B910BA20BD5
:10242000B30B893C9105A105B10508F466C087E1AD
:102430000E94A003059758F48091C3019091C401B4
:102440008835924020F481E08093C00102C0109250
:10245000C00186E592E00E946E08181619060CF07D
:1024600042C086E592E00E94AE08813669F14CF4E4
:102470008334D1F0863561F56091C3017091C40158
:1024800017C08936D9F08737E1F0823609F56091B7
:10249000BD0186E592E00E944D086091BE0186E58F
:1024A00092E00E944D081FC06091C1017091C2016D
:1024B00080E090E04AE00E94DC0C15C060910401CD
:1024C00005C06091020102C06091030170E0F0CF8D
:1024D000E0915602F09157020190F081E02D6FE3F8
:1024E00086E592E009950E9405046093C901709306
:1024F000CA018093CB019093CC010E940504009106
:10250000C5011091C6012091C7013091C801DC01BD
:10251000CB01801B910BA20BB30B893E9340A1050D
:10252000B10520F184E10E94A0039093C40180933F
:10253000C30161E070E080E090E00E94CB0385E1A0
:102540000E94A0039093C2018093C10161E070E0FA
:1025500080E090E00E94CB030E9405046093C501D7
:102560007093C6018093C7019093C801209709F426
:10257000C8CC0E940000C5CC10925902109258029B
:1025800088EE93E0A0E0B0E080935A0290935B0263
:10259000A0935C02B0935D028BE391E090935702AD
:1025A000809356028FEF9FEF9093630280936202B5
:1025B0008BE491E09093C0028093BF028091E2028D
:1025C000811113C01092DD021092DC0284EF91E0C1
:1025D0009093DF028093DE0280E590E09093E10229
:1025E0008093E00281E08093E2028091B702811142
:1025F00007C086EA92E00E945B0481E08093B70204
:10260000E091B102F091B202309739F48CED92E092
:102610009093B2028093B1020AC0808191810097A9
:1026200011F0FC01FACF8CED92E091838083209130
:10263000E0023091E1028091B3029091B402820FE6
:10264000931F9093B4028093B3021092D30210921E
:10265000D20288EE93E0A0E0B0E08093D4029093A1
:10266000D502A093D602B093D70281E591E0909372
:10267000D1028093D0020895EE0FFF1F0590F491D0
:10268000E02D099481E090E0F8940C94C013F9993E
:10269000FECF92BD81BDF89A992780B50895262F67
:1026A000F999FECF1FBA92BD81BD20BD0FB6F89437
:1026B000FA9AF99A0FBE01960895052E97FB1EF41B
:1026C00000940E94741357FD07D00E948F1307FCDB
:1026D00003D04EF40C947413509540953095219589
:1026E0003F4F4F4F5F4F089590958095709561953E
:1026F0007F4F8F4F9F4F08950E94B113A59F900D5C
:10270000B49F900DA49F800D911D11240895B7FFD3
:102710000C947C130E947C13821B930B0895A1E2FE
:102720001A2EAA1BBB1BFD010DC0AA1FBB1FEE1F4B
:10273000FF1FA217B307E407F50720F0A21BB30B96
:10274000E40BF50B661F771F881F991F1A9469F712
:1027500060957095809590959B01AC01BD01CF016E
:102760000895A29FB001B39FC001A39F700D811D6A
:102770001124911DB29F700D811D1124911D08958A
:04278000F894FFCFFB
:102784000200010100000000000000000000000041
:102794000032000000C18081000000FFFFFFFF0045
:1027A400E1000000000000010000000000000072D1
:1027B40001B90279029901000000004D080B0A6E6C
:1027C40008AE088A08630800000000AF0400000097
:0E27D400004A021A021202FE01EF01EE01009D
:2070000055C000006EC000006CC000006AC0000068C0000066C0000064C0000062C0000043
:2070200060C000005EC00000F2C400005AC0000058C0000056C0000054C0000052C00000EE
:2070400050C0000078C000004CC000004AC0000048C0000046C0000044C0000042C00000BE
:2070600040C000003EC000003CC000003AC0000038C0000036C0000034C0000032C0000048
:2070800030C000002EC000002CC000002AC0000028C0000026C0000024C0000022C00000A8
:2070A00020C000001EC000001CC0000011241FBECFEFDAE0DEBFCDBF11E0A0E0B1E0E2E3BC
:2070C000FFE702C005900D92A83AB107D9F711E0A8EAB1E001C01D92AE3BB107E1F78FD30B
:2070E00026C78ECFF89410926F0010928100109285001092840081E085BF15BE47985D9AEB
:20710000289A0C94000008952091B2013091B3012F5F3F4F3093B3012093B201932F37FFA6
:2071200003C08EEF831B982F990F921710F447980895479A08951F920F920FB60F9211246E
:207140002F938F939F93EF93FF9310928500109284008091A8019091A901009741F00197D3
:207160009093A9018093A801892B09F45D9A8091AA019091AB01009741F001979093AB0126
:207180008093AA01892B09F4289AE0E0F0E0859194918F5F9F4F49F08091AC019091AD0151
:2071A00001969093AD018093AC01FF91EF919F918F912F910F900FBE0F901F90189584E0BC
:2071C0008093E9000DC08091E8008B778093E80003C08EB3882351F08091E80082FFF9CFBE
:2071E0008091E80085FFEFCF8091F1000895982F83E08093E9008091E80085FD0DC0809136
:20720000E8008E778093E80003C08EB3882369F08091E80080FFF9CF9093F1005D9884E6CB
:2072200090E09093A9018093A80108954F925F926F927F928F929F92AF92BF92CF92DF921E
:20724000EF92FF920F931F93CF93DF9384E08093E9008091E80082FF57C2289884E690E067
:207260009093AB018093AA01AADF182F853481F48CE49DE19093AD018093AC0107B600FC4B
:20728000FDCFF999FECF81E180935700E89503C0843519F494DF8DE00DC28C34E1F38035F9
:2072A000D1F3843721F484E4A2DF80E003C2813611F489E5FFC18134B1F481DF182F7FDFE3
:2072C00090E0880F991FAA2797FDA095BA2F312F330F20E0442737FD4095542F822B932B68
:2072E000A42BB52BB8C1803711F483E5E3C1833549F4C0E0D1E089917ADF21E0C730D20714
:20730000D1F7D9C1863521F481E371DF80E3D2C1833731F487E86BDF85E969DF8EE1CAC149
:207320008536B9F4E0E0F0E093E085E090935700E89507B600FCFDCF80935700E89507B65D
:2073400000FCFDCFE058FF4FA0E7E030FA0771F7A2CF823739F4E1E0F0E089E08093570024
:207360008491A8C1863439F4E0E0F0E089E08093570084919FC18E3439F4E3E0F0E089E0E5
:2073800080935700849196C1813539F4E2E0F0E089E08093570084918DC1823631F489E521
:2073A00026DF80E024DF80E885C1823419F0873609F0E5C01092AD011092AC0100DF082FE8
:2073C000FEDEF82EFCDE682E8554823008F071C1902F80E0CF2DD0E0C82BD92B10926F00B3
:2073E000173609F04BC081E180935700E895DD24CC24C3943FC0E090AE01F090AF010091CC
:20740000B0011091B101B6E46B16D9F4ED2DF0E0EE29FF29E4918E2FEADEDD2081F082E08D
:2074200090E0A0E0B0E0E80EF91E0A1F1B1FE092AE01F092AF010093B0011093B101DC2470
:2074400018C0D801C701B695A7959795879559D5CEDE82E090E0A0E0B0E0E80EF91E0A1FF2
:207460001B1FE092AE01F092AF010093B0011093B1012197209709F0BECF7DC08090AE01F5
:207480009090AF01A090B001B090B10196E4691609F05DC083E0F40180935700E89507B63E
:2074A00000FCFDCF54C0F6E46F1661F5772031F1E090AE01F090AF010091B0011091B1019E
:2074C0007EDED82ECC24852D90E08C299D29F7010C0140925700E895112482E090E0A0E08B
:2074E000B0E0E80EF91E0A1F1B1FE092AE01F092AF010093B0011093B10102C060DE582E1A
:20750000742423C0E090AE01F090AF010091B0011091B10116950795F794E79450DE682FFA
:20752000C701F7D48091AE019091AF01A091B001B091B1010296A11DB11D8093AE01909349
:20754000AF01A093B001B093B101219704C05524772444244394209709F0A5CF96E46916B6
:2075600041F485E0F40180935700E89507B600FCFDCF8DE03CDE82E080936F009CC0833492
:2075800071F40091AE011091AF0119DE90E021E0F8010C0120935700E89511247CCE8336C8
:2075A00019F5E090AE01F090AF010091B0011091B10105DEF701E16090E021E00C0120938C
:2075C0005700E895112482E090E0A0E0B0E0E80EF91E0A1F1B1FE092AE01F092AF0100936A
:2075E000B0011093B10157CE8D3661F4E091AE01F091AF0185E080935700E89507B600FCF2
:20760000FDCF49CE823551F4E091AE01F091AF0105911491812FEBDD802F4CC0843421F5FE
:20762000E090AE01F090AF010091B0011091B10116950795F794E794C2DD682FC70169D4DE
:207640008091AE019091AF01A091B001B091B1010296A11DB11D8093AE019093AF01A093D8
:20766000B001B093B10117CE843609F5E090AE01F090AF010091B0011091B101D801C70142
:20768000B695A795979587953CD4B1DD82E090E0A0E0B0E0E80EF91E0A1F1B1FE092AE010A
:2076A000F092AF010093B0011093B10104C08B3111F08FE39CDD83E08093E9009091E8002B
:2076C0008091E8008E778093E80095FF04C010C08EB38823C9F08091E80080FFF9CF809193
:2076E000E8008E778093E80003C08EB3882361F08091E80080FFF9CF84E08093E9008091F1
:20770000E8008B778093E800DF91CF911F910F91FF90EF90DF90CF90BF90AF909F908F90AC
:207720007F906F905F904F9008959091B601892F8F77813249F58091B7018032A1F081328A
:2077400019F5913A09F58091E800877F8093E8008DE091E067E070E00BD28091E8008B770B
:207760008093E8000895913279F48091E800877F8093E8008DE091E067E070E05DD2809192
:20778000E8008E778093E800089582E061EC42E0B5D083E061E842E1B1D084E060E842E1EF
:2077A000ADC084B7877F84BF88E10FB6F89480936000109260000FBE20E880E090E00FB63F
:2077C000F89420936100809361000FBE81E085BF92E095BF3F9A209A559AE1E6F0E02083A1
:2077E000108247985D9A289A109289008AEF8093880090936F0083E080938100F0C0409116
:20780000000850910108109201081092000894B714BE88E10FB6F8948093600010926000D5
:207820000FBE292F30E0F901E270F07091FD18C090FF05C0859194918F5F9F4F81F423FFFF
:207840000FC08091090190910A014817590741F0E0E0F0E0859194918F5F9F4F09F042DC64
:20786000A0DF78941092AD011092AC010CC0DEDC36D38091AC019091AD0181549F4110F00D
:207880001092140141DC80911401882381F78091E00081608093E00025DC80E090E0089598
:2078A000FA01923049F0933061F09130F9F485E191E022E130E01EC087E291E02EE330E04D
:2078C00019C0882329F485E691E024E030E012C0813029F489E691E022E230E00BC0823006
:2078E00029F48DE891E028E130E004C080E090E020E030E091838083C90108958093E9004E
:207900008091EB0081608093EB001092ED006093EC004093ED008091EE00881F8827881F62
:2079200008958091B60188238CF403C08EB38823B1F08091E80082FFF9CF8091E8008B772A
:207940008093E80008958EB3882349F08091E80080FFF9CF8091E8008E778093E800089594
:20796000EF92FF920F931F9345D04CD008ED10E0F80180818F77808380818068808380819B
:207980008F7D808319BC1EBA1092B40180EEE82EF12CF70180818B7F8083F8018081816052
:2079A000808380E060E042E0A9DFE1EEF0E080818E7F8083E2EEF0E0808181608083808144
:2079C00088608083F70180818E7F8083F8018081806180831F910F91FF90EF900895E7ED06
:2079E000F0E08081816080838AE482BF81E08093B501B6CFE8EDF0E080818E7F808310921C
:207A0000E20008951092DA001092E10008951F920F920FB60F9211242F933F934F935F93F6
:207A20006F937F938F939F93AF93BF93EF93FF938091DA0080FF1BC08091D80080FF17C0B2
:207A40008091DA008E7F8093DA008091D90080FF0BC080E189BD82E189BD09B400FEFDCF36
:207A600081E08EBB3BD203C019BC1EBA37D28091E10080FF17C08091E20080FF13C0809138
:207A8000E2008E7F8093E2008091E20080618093E2008091D80080628093D80019BC85E049
:207AA0008EBB1CD28091E10084FF2CC08091E20084FF28C080E189BD82E189BD09B400FEC5
:207AC000FDCF8091D8008F7D8093D8008091E1008F7E8093E1008091E2008F7E8093E20012
:207AE0008091E20081608093E2008091B401882331F48091E30087FD02C081E001C084E067
:207B00008EBBECD18091E10083FF21C08091E20083FF1DC08091E100877F8093E10082E06A
:207B20008EBB1092B4018091E1008E7F8093E1008091E2008E7F8093E2008091E2008061E9
:207B40008093E20080E060E042E0D8DEC7D1FF91EF91BF91AF919F918F917F916F915F9130
:207B60004F913F912F910F900FBE0F901F9018959C014091BC015091BD014617570718F49D
:207B8000F90190E044C06115710511F0AB01F8CF8091E8008E778093E80040E050E0F0CF0F
:207BA0008EB3882309F444C0853009F443C08091E80083FF02C081E008958091E80082FD70
:207BC00031C08091E80080FF22C08091F3009091F200782F60E0292F30E0262B372B07C07A
:207BE00081918093F100415050402F5F3F4F4115510519F02830310598F390E02830310566
:207C000009F491E08091E8008E778093E8004115510531F6992321F605C08EB3882341F075
:207C2000853041F08091E80082FFF7CF80E0089582E0089583E008959C016115710529F47C
:207C40008091E8008B778093E800F90126C08EB3882391F1853091F18091E80083FF02C06C
:207C600081E008958091E80082FFF1CF06C08091F10081936150704059F02091F300809191
:207C8000F200322F20E090E0822B932B892B79F78091E8008B778093E80061157105B9F601
:207CA00005C08EB3882341F0853041F08091E80080FFF7CF80E0089582E0089583E00895C2
:207CC0000F931F93DF93CF9300D0CDB7DEB7E6EBF1E08091F100819381E0EE3BF807C9F792
:207CE00024DD8091E80083FFE4C08091B6019091B701953009F46DC0963040F4913081F1A7
:207D0000913070F0933009F0D4C02AC0983009F4A3C0993009F4B2C0963009F0CAC07CC023
:207D2000803809F4C6C0823809F0C3C08091BA0187708093E9008091EB001092E9002091DB
:207D4000E800277F2093E80090E025E0969587952A95E1F781708093F1001092F10087C0D8
:207D6000882319F0823009F0A4C08F71823009F0A0C08091B801882331F52091BA01277097
:207D800009F497C02093E9008091EB0080FF1BC0933021F48091EB00806213C08091EB0018
:207DA00080618093EB0081E090E002C0880F991F2A95E2F78093EA001092EA008091EB00E5
:207DC00088608093EB001092E9008091E800877F51C0882309F06DC01091B8011F770FB79B
:207DE000F8948091E800877F8093E8009ADD8091E80080FFFCCF8091E3008078812B809398
:207E0000E30080688093E300112311F482E001C083E08EBB0FBF4DC08058823008F049C033
:207E20008091B8019091B9016091BA01AE014F5F5F4F36DDBC01009709F43BC08091E8008E
:207E4000877F8093E80089819A8192DE8091E8008B778093E8002DC0803859F58091E800AA
:207E6000877F8093E8008091B4018093F1008091E8008E778093E80054DD1BC08823C9F4CA
:207E80009091B8019230A8F48091E800877F8093E8009093B40145DD8091B401882331F420
:207EA0008091E30087FD02C081E001C084E08EBB6CDC8091E80083FF0AC08091EB0080624E
:207EC0008093EB008091E800877F8093E8000F900F90CF91DF911F910F91089508951F9360
:207EE0008EB3882361F01091E9001092E9008091E80083FF01C0E4DE17701093E9001F916F
:207F00000895F999FECF92BD81BDF89A992780B50895262FF999FECF1FBA92BD81BD20BDBD
:207F20000FB6F894FA9AF99A0FBE01960895F894FFCF4341544552494E4100777700080031
:207F40000000000000080112011001020000084123360001000201000109023E00020100FF
:207F600080320904000001020201000524001001042402040524060001070582030800FF0C
:207F800009040100020A000000070504021000010705830210000104030904220341007216
:207FA000006400750069006E006F0020004C0065006F006E006100720064006F0000001836
:1A7FC00003410072006400750069006E006F0020004C004C004300000000D7
:00000001FF
