:100000000C9421010C9449010C9449010C94490170
:100010000C9449010C9449010C9449010C94490138
:100020000C9449010C9449010C9480090C944B0ADE
:100030000C9449010C9449010C9449010C94490118
:100040000C9449010C9449010C9449010C94490108
:100050000C9449010C9449010C9449010C94610ED3
:100060000C9449010C9449010C9449010C944901E8
:100070000C9449010C9449010C9449010C944901D8
:100080000C9449010C9449010C9449010C944901C8
:100090000C9418030C9449010C9449010C944901E7
:1000A0000C9449010C9449010C944901B307B80719
:1000B000BD07C707D1071B081B081B08DB07E5079F
:1000C000EF07F90706081B080E08930C960C850C21
:1000D000890C8F0CB70CB70CB70C9A0C9E0CA20CA9
:1000E000A80CAC0CB70CB20C070605040100080AFA
:1000F0000B0C0D0900000000240027002A002D0031
:10010000300000000000250028002B002E003100E8
:10011000080B0002020201000904000001020200B3
:100120000005240010010524010101042402060534
:1001300024060001070581031000400904010002A4
:100140000A00000007050202400000070583024084
:1001500000000403090412010002EF0201404123E0
:10016000368000010102030141726475696E6F20DF
:100170004C4C430041726475696E6F204C656F6E24
:100180006172646F00000000002300260029002C2B
:10019000002F000404040404030405020202020404
:1001A0000302020202060606060606040402020212
:1001B0000404040802011040804010204080408068
:1001C00008020401804020100201108010204040ED
:1001D000200000000200090F0000030401000C00D1
:1001E000000000000000000000000000000000000F
:1001F00005010904A1018506050919012920150039
:1002000025017501952081020501A1000930093100
:100210000933093416008026FF7F7510950481028A
:10022000093209351580257F750895028102C005C0
:10023000010939093915012508950275048102C0A3
:10024000B31611241FBECFEFDAE0DEBFCDBF11E041
:10025000A0E0B1E0E2E7FFE202C005900D92A03716
:10026000B107D9F723E0A0E7B1E001C01D92A534A2
:10027000B207E1F711E0C1E2D1E004C02197FE012D
:100280000E94AC17C032D107C9F70E94BF0F0C946F
:10029000B7170C940000DC01FB0112968C911297A9
:1002A00090E02481358182179307D1F49181808178
:1002B000813A31F481E0913091F0933089F411C0AA
:1002C000813271F49B3021F482811F968C9305C09A
:1002D0009A3031F4828150968C9381E0089508958C
:1002E00080E00895DC01FB0188E4808389E4818358
:1002F00084E482831D969C911D979F709F5B9383DE
:100300001D968D919C911E9724E0969587952A9530
:10031000E1F78F708F5B848385E00895FC01828113
:100320008F5BFB01808381E0089585ED8093BC00A5
:100330008091BC0084FDFCCF10929B0108954091F8
:100340007002262F30E0240F311D21323105DCF4FC
:1003500020919B012430C9F4FC0180E090E08617D5
:1003600058F4309170022191DC01A25BBD4FA30FC4
:10037000B11D2C930196F3CF80917002680F6093AA
:10038000700280E0089581E0089582E00895089564
:10039000E091740180917301E81730F4F0E0E25DC0
:1003A000FD4F808190E008958FEF9FEF0895909129
:1003B000740180917301981750F4E92FF0E0E25D29
:1003C000FD4F208130E09F5F9093740102C02FEFBA
:1003D0003FEFC90108958091730190E0209174016D
:1003E000821B91090895CF92DF92EF92FF920F93B3
:1003F0001F93CF93DF937C01262F972F8A01809143
:100400009C01882391F0C62FD72F6E01C40ED51EF4
:10041000CC15DD0571F06991D701ED91FC9101904A
:10042000F081E02DC7010995F3CF642F822F0E9440
:100430009F01C801DF91CF911F910F91FF90EF9025
:10044000DF90CF900895CF93DF931F92CDB7DEB7A3
:10045000698320919C012223D1F02091BE0120329A
:1004600040F021E030E0FC013383228380E090E023
:1004700015C080919D01E82FF0E0E256FE4F998172
:1004800090838F5F80939D018093BE0105C061E0E2
:10049000CE0101960E949F0181E090E00F90DF91D4
:1004A000CF910895EF92FF920F931F93CF93DF9315
:1004B000FB012081213851F52381223239F5DC01FD
:1004C00012962C9130E04481558142175307F1F484
:1004D000EC010B851C85E12CF12C0115110591F027
:1004E000F801448155816281738180E80E94F2099C
:1004F0008F3FFFEF9F0769F0E80EF91ED8010D91BD
:100500001C91EBCF81E08F87C70105C080E090E0B0
:1005100002C08FEF9FEFDF91CF911F910F91FF905E
:10052000EF900895CF93DF93CDB7DEB769970FB6FD
:10053000F894DEBF0FBECDBFFC01DB018C918F5F55
:100540008C93BE016F5F7F4F89E1DB011D928A951D
:10055000E9F729E0298384E08A8391E09D8383E0A1
:100560008E832A8721E22B879C879D879F8722E2A3
:10057000288B27E02B8B25E02C8B8E8B20E430E022
:10058000388F2F8B998F82818B8395858685998B68
:100590008A8B838180688D8B49E150E080E00E94E6
:1005A000F20969960FB6F894DEBF0FBECDBFDF919A
:1005B000CF910895EF92FF920F931F93CF93DF9304
:1005C0001F92CDB7DEB78B017A01809112038111A2
:1005D00007C081E093E00E94AB0E81E0809312039C
:1005E00086E0898341E050E0BE016F5F7F4F8091DC
:1005F00004030E94890D97FD07C080910403A701A1
:10060000B80180640E94890D0F90DF91CF911F91F6
:100610000F91FF90EF900895682F80E10E94B80C31
:1006200060E08FE00E94B80C61E08FE00C94B80CA1
:100630001F920F920FB60F9211242F933F934F9357
:100640005F936F937F938F939F93AF93BF93EF933A
:10065000FF938091B900887F803609F49CC068F5CB
:10066000883209F45BC090F4803109F454C038F446
:10067000882309F4F6C0883009F44DC0F6C08831EB
:1006800009F44CC0803209F45DC0EFC0803409F435
:1006900068C048F4803309F455C0883309F0E5C0D8
:1006A00080939901D8C0803509F44FC0883509F48A
:1006B0005DC0883409F0D9C0D6C0883909F4C7C0F4
:1006C000A8F4883709F467C038F4883609F463C0A1
:1006D000803709F460C0C9C0883809F4B8C08039CF
:1006E00009F45FC0803809F0C0C05BC0803B09F4EA
:1006F00086C038F4803A09F466C0883A09F47FC0AD
:10070000B4C0803C09F4A7C0883C09F4A4C0883B6D
:1007100009F48AC0AAC08091760110C09091980116
:1007200080919701981770F5E091980181E08E0F04
:1007300080939801F0E0E958FE4F80818093BB00E0
:1007400085EC86C0809399018EC0E091980181E08C
:100750008E0F809398018091BB00F0E0E958FE4F26
:10076000808390919801809197016EC0E0919801EB
:1007700081E08E0F809398018091BB00F0E0E958F2
:10078000FE4F808380919A0181116DC081E080933A
:10079000750184EA61C083E080939B01109294020A
:1007A000CFCF80919402803208F051C0E091940242
:1007B00081E08E0F809394028091BB00F0E0EC58B2
:1007C000FD4F8083BDCF85EC8093BC0010929B01D0
:1007D00080919402803230F4E0919402F0E0EC5881
:1007E000FD4F10826091940270E0E0917202F091EE
:1007F000730284E792E009951092940236C084E077
:1008000080939B011092710210927002E0916E022F
:10081000F0916F02099580917002811105C081E00D
:100820008093700210924E02E091710281E08E0F6F
:1008300080937102F0E0E25BFD4F80818093BB000A
:100840009091710280917002981708F479CF85E831
:100850008093BC000AC085EC8093BC0010929B0181
:1008600004C0109299010E949501FF91EF91BF91F0
:10087000AF919F918F917F916F915F914F913F9138
:100880002F910F900FBE0F901F90189561E085E09B
:100890000E94E80C60E085E00C94B80C0F931F9365
:1008A000CF93082F81E00E940C03C8E010E0C150F4
:1008B000C8010C2E02C0959587950A94E2F78170C5
:1008C0000E940C03C111F3CFCF911F910F91089596
:1008D0000F931F93CF93082F80E00E940C03C8E072
:1008E00010E0C150C8010C2E02C0959587950A945E
:1008F000E2F781700E940C03C111F3CFCF911F91D9
:100900000F91089581110C94460461E085E00E94E6
:10091000B80C60E085E00E94E80C60E085E00E9491
:10092000B80C60E08FE00E94B80C60E080E10C94AD
:10093000B80C61E080E10E94E80C61E08FE00E9469
:10094000E80C61E085E00E94E80C61E08DE00E9427
:10095000E80C60E08DE00E94B80C6AE070E080E096
:1009600090E00E944F0D61E08DE00E94B80C6AE0BB
:1009700070E080E090E00E944F0D60E08DE00E940A
:10098000E80C60E08DE00E94B80C0E94460489EB00
:100990000E9468048FEF0E944E0483E80E944E0478
:1009A00083E60E944E0480E00E9482040E94460476
:1009B00081EB0E94680481E80E944E0480E30E945B
:1009C0004E0484E00E944E0484E30E944E0482E0C0
:1009D0000E944E0483E10E944E0481E10E944E0475
:1009E00080E00E944E048AE30E944E0482E40E944A
:1009F0004E048FE30E944E048FE30E944E0480E079
:100A00000E9482040E94460484EB0E94680488E0ED
:100A10000E944E0482E10E944E0482E70E944E042E
:100A200082E10E944E0486E00E944E0483E00E9410
:100A30004E0484E50E944E0483E00E944E048EE43E
:100A40000E944E0480E00E9482040E9446048FEBC4
:100A50000E94680480E00E944E0480E10E944E04DF
:100A600080E00E9482040E94460486EB0E94680493
:100A700082E10E944E0480E00E9482040E944604AB
:100A800083EB0E94680481E00E944E0480E00E9493
:100A900082040E94460486E30E9468048AE00E9461
:100AA0004E0480E00E9482040E9446048CEC0E9466
:100AB000680482E00E944E0480E00E9482040E944A
:100AC000460480EE0E94680480E00E944E0480E8A4
:100AD0000E944E0480E00E944E048CE80E944E0466
:100AE00083E10E944E0487EA0E944E0485E00E9442
:100AF0004E048DE00E944E0480E50E944E0484E185
:100B00000E944E0486E10E944E0485E50E944E0438
:100B100086E10E944E0487E80E944E0483E00E9412
:100B20004E0480E00E944E0480E80E944E0480E063
:100B30000E944E048CE80E944E0483E10E944E0401
:100B400087EA0E944E0485E00E944E048DE00E94D8
:100B50004E0480E50E944E0484E10E944E0486E12A
:100B60000E944E0485E50E944E0486E10E944E04D8
:100B700087E80E944E0483E00E944E0480E00E94B9
:100B800082040E9446048AE30E94680480E60E9470
:100B90004E0480E00E9482040E94460481E10E948B
:100BA000680480E00E94820466E970E080E090E0E2
:100BB0000E944F0D0E94460489E20E94680480E072
:100BC0000E94820466E970E080E090E00C944F0D92
:100BD000CF92DF92EF92FF921F93CF93DF93CDB727
:100BE000DEB760970FB6F894DEBF0FBECDBF809121
:100BF0009B018111FCCF81E080939B0180939A013E
:100C00009FEF9093990110929801809397018093A0
:100C100076018091760188648093760180917501D8
:100C2000813061F410927501809176018093BB0050
:100C30008091BC0083FDF8CF85EC01C085EE8093E8
:100C4000BC0080919B018130E1F38091980182305A
:100C500018F48091980101C082E0A7E7B1E02EE28C
:100C600032E0F9019E2F921B981718F49D919193F1
:100C7000F9CF109274018093730110E09091730189
:100C800080917401981729F18BE293E00E94D701BB
:100C9000809548E0149FB001112420E030E090E0FE
:100CA000F901E60FF71F41E050E04C0F5D1FE40F24
:100CB000F51FAC01022E02C0559547950A94E2F744
:100CC000417040832F5F3F4F2830310549F71F5F48
:100CD000D5CF8B818093C1018D818093C2018C819E
:100CE0008093C3018E818093C4018A858093C5015E
:100CF00089858093C6018C858093C7018B858093FD
:100D0000C80188858093C9018F818093CA018A8137
:100D10008093CB0189818093CC018E858093CD0116
:100D20008D858093CE018F858093CF0188898093B4
:100D3000D00180E090E0C12CD12C7601C394FC015D
:100D4000EF53FE4F2081222381F02091BF01B70194
:100D5000A601082E04C0440F551F661F771F0A9472
:100D6000D2F7422B4093BF0111C03091BF01B701B0
:100D7000A601082E04C0440F551F661F771F0A9452
:100D8000D2F74095242F23232093BF01019688306A
:100D90009105A9F680E090E0C12CD12C7601C39496
:100DA000FC01E753FE4F3081332381F03091C001C5
:100DB000B701A601082E04C0440F551F661F771FF8
:100DC0000A94D2F7432B4093C00111C03091C00167
:100DD000B701A601082E04C0440F551F661F771FD8
:100DE0000A94D2F74095242F23232093C001019623
:100DF00088309105A9F68091BF019091D101892B8E
:100E00008093D1018091C0019091D201892B809370
:100E1000D20160960FB6F894DEBF0FBECDBFDF9152
:100E2000CF911F91FF90EF90DF90CF9008950F9397
:100E30001F93CF93DF9300E011E0C0E0D0E0CE013C
:100E40000E943317F80181938F012196C132D10599
:100E5000B1F7DF91CF911F910F9108950F931F93D9
:100E6000CF93DF9300E011E0C0E0D0E0F8016191A2
:100E70008F01CE010E943B172196C132D105B1F7F7
:100E8000DF91CF911F910F910895882329F081E080
:100E90008093030160E003C01092030161E08BE0E6
:100EA0000E94E80C0C942E07882341F081E0809387
:100EB000020160E089E00E94E80C10C0109202017B
:100EC00061E089E00E94E80C61E089E00E94B80CD2
:100ED00064EF71E080E090E00E944F0D0C942E07CB
:100EE0001F93CF93DF9390910101813051F49B3E8A
:100EF000B8F4913E10F4965F0EC08BEE8093010122
:100F00000FC0823069F4992359F0292F30E02B303B
:100F1000310524F09A509093010102C01092010112
:100F200010910101C12FD0E061E08AE00E94E80C3D
:100F3000209711F460E004C0CF3FD10529F461E0AF
:100F40008AE00E94B80C7CC0EBEDF1E0E4918E2FBA
:100F500090E0FC013197EF30F10508F06CC0EA5ADF
:100F6000FF4F0C94AC1784B5806884BD17BD68C072
:100F700084B5806284BD18BD63C0809180008068A4
:100F800080938000D0938900C093880059C08091DD
:100F90008000806280938000D0938B00C0938A0091
:100FA0004FC080918000886080938000D0938D0036
:100FB000C0938C0045C08091900080688093900021
:100FC000D0939900C09398003BC0809190008062BC
:100FD00080939000D0939B00C0939A0031C0809181
:100FE0009000886080939000D0939D00C0939C00F7
:100FF00027C08091C00080688093C0008091C000AD
:101000008F7B8093C0001093CF001AC08091C000E6
:1010100080628093C0001093D00012C08091C20003
:1010200088608093C2008091C2008B7F8093C20051
:101030001093D20005C0C038D1050CF080CF7ACF14
:10104000DF91CF911F910C942E074091AC025091EB
:10105000AD022091AA023091AB0242175307B4F4BB
:101060009091E8009570E1F39091E80092FD19C02D
:101070008093F1008091AC029091AD0201968F7344
:101080009927892B19F48EEF8093E8008091AC02A8
:101090009091AD0201969093AD028093AC0281E0F5
:1010A000089580E00895CF92DF92EF92FF920F9320
:1010B0001F93CF93DF931F92CDB7DEB7182F062F64
:1010C000E42E862F880F8E5F99830E94250883E087
:1010D0000E942508F12EC12E9981D92E8C2D8F19B1
:1010E000801798F4F601E7FE02C0849101C0808168
:1010F0000E942508182F80E00E9425088123FFEF19
:10110000CF1ADF0A8111EACF01C081E00F90DF9191
:10111000CF911F910F91FF90EF90DF90CF900895A6
:10112000615030F02091F100FC0120830196F8CF4E
:10113000289884E68093AF020895CF92DF92EF92D1
:10114000FF920F931F93CF93DF936C017A018B0172
:10115000C0E0D0E0CE15DF0589F0D8016D918D019A
:10116000D601ED91FC910190F081E02DC601099529
:10117000892B11F47E0102C02196ECCFC701DF91CB
:10118000CF911F910F91FF90EF90DF90CF90089536
:101190008091A20281110DC082E080939E0284E0C2
:1011A00080939F021092A1021092A00281E080938E
:1011B000A2028EE992E00895CF93DF931F92CDB7FC
:1011C000DEB76983DC01ED91FC910280F381E02DB3
:1011D00041E050E0BE016F5F7F4F09950F90DF91B6
:1011E000CF91089583E08093E9008091F2008823F5
:1011F00019F08AE38093E8000895FC0184859585C1
:1012000097FD0BC09FB7F89482E08093E90080912E
:10121000F2009FBF90E0019608959FB7F89482E096
:101220008093E9008091F2009FBF90E008953FB75E
:10123000F89480919A0290919B02A0919C02B091A7
:101240009D0226B5A89B05C02F3F19F00196A11D50
:10125000B11D3FBFBA2FA92F982F8827820F911D4C
:10126000A11DB11DBC01CD0142E0660F771F881F93
:10127000991F4A95D1F708950E94B2170F931F93B3
:10128000CF93DF931F92CDB7DEB78C01FC0184852D
:10129000958597FF0EC0CE0101960E94490F0197D8
:1012A00019F4298130E002C02FEF3FEFF8013587B4
:1012B0002487F801848595850F90DF91CF911F9148
:1012C0000F910895CF93DF931F92CDB7DEB7FC0146
:1012D0008485958597FD05C02FEF3FEF35872487DF
:1012E0000BC0CE0101960E94490F019719F4898124
:1012F00090E002C08FEF9FEF0F90DF91CF910895A4
:101300001F920F920FB60F9211248F939F9380918B
:10131000E1009091E100937F9093E10083FF0FC083
:101320001092E90091E09093EB001092EC0092E3B0
:101330009093ED001092B00298E09093F00082FF3D
:1013400020C093E09093E9009091F200992319F066
:101350009AE39093E8009091AE02992339F090912E
:10136000AE0291509093AE02992389F19091AF0211
:10137000992339F09091AF0291509093AF02992345
:1013800041F184FF10C08091E2008E7E81608093E5
:10139000E2008091E1008F7E8093E10080917101F5
:1013A0008E7E806111C080FF16C08091E2008E7E2B
:1013B00080618093E2008091E1008E7E8093E10065
:1013C000809171018E7E81608093710104C05D9A6D
:1013D000CDCF289AD6CF9F918F910F900FBE0F90AF
:1013E0001F901895DF92EF92FF920F931F93CF9368
:1013F000DF93D82E8A017B01E40EF51EEB01CE159A
:10140000DF0571F0D7FE03C0FE01849101C0888121
:101410000E94250821968111F2CF8FEF9FEF01C026
:10142000C801DF91CF911F910F91FF90EF90DF9056
:1014300008950F931F93CF93DF931F92CDB7DEB71D
:1014400082E0898342E450E060E171E080E80E943C
:10145000F2090E94C808DC0112960D911C911397A5
:101460000115110569F0D801ED91FC910280F3811D
:10147000E02DBE016F5F7F4FC801099597FF07C040
:1014800089810F90DF91CF911F910F910895F801FD
:1014900000851185E5CF1F920F920FB60F92112490
:1014A000CF92DF92EF92FF920F931F932F933F9370
:1014B0004F935F936F937F938F939F93AF93BF935C
:1014C000EF93FF93CF93DF93CDB7DEB76C97DEBF7B
:1014D000CDBF1092E9008091E80083FFEDC168E084
:1014E000CE0145960E94900882EF8093E8008D8996
:1014F00087FF05C09091E80090FFFCCF03C09EEFEE
:101500009093E800982F907609F0C6C09E892F89A5
:10151000188D91110CC0803829F48091720180934C
:10152000F10002C01092F1001092F10048C1422F68
:1015300050E0512B913051F4811141C1413051059E
:1015400009F03DC1809172018D7F0BC0933061F431
:10155000811135C14130510509F031C180917201CD
:101560008260809372012BC1953041F48091E80034
:1015700080FFFCCF20682093E30021C1963009F062
:101580005FC0EB8CFC8C1092E9001092AD021092BF
:10159000AC02123091F51092AB021092AA020E9496
:1015A000190A99E0BE016F5F7F4FDB01E92F1D92A1
:1015B000EA95E9F799831A8391E09E8390EA9887E8
:1015C0009AEF99872091AC023091AD02275F3F4F8F
:1015D0003C832B838D831092E9001092AD02109210
:1015E000AC02F092AB02E092AA0249E050E080E047
:1015F0000E94F2090E94190AE2C0F092AB02E09246
:10160000AA020E94C808DC011296ED90FC90139784
:10161000E114F10409F4C0C0D701ED91FC910480FC
:10162000F581E02DBE016B5E7F4FC70109950097E4
:1016300019F00CF0C4C0C7C0F701E084F184E8CF12
:10164000973009F4C0C0983021F481E08093F10014
:10165000B6C0993009F0B3C0837009F0B4C0E2E2BB
:10166000F1E081E021E036E39081992361F08093FD
:10167000E9002093EB0091919093EC003093ED0002
:101680008F5F873089F78EE78093EA001092EA0037
:101690008F898093B00293C08B8D9C8D1092E9004E
:1016A0001092AD021092AC029093AB028093AA020A
:1016B000898D811156C08E899D89913A59F4813264
:1016C00009F081C047E050E06CE271E080E00E94E8
:1016D000F20975C0913209F076C0833289F4888DA1
:1016E00090E0982F88272F89822BA0E0B0E080938C
:1016F000280190932901A0932A01B0932B015FC088
:10170000803269F48091E80082FFFCCF67E08CE2D0
:1017100091E00E9490088BEF8093E80006C082322F
:1017200009F04DC08F898093330180917001882327
:1017300019F0EEEFFAE002C0E0E0F8E080912C0151
:1017400090912D01A0912E01B0912F01803B9440EA
:10175000A105B10509F07BC08091330180FF93C0E2
:1017600076C00E94C808DC0112960D911C91139757
:101770000115110541F1D801ED91FC910190F08125
:10178000E02DBE016B5E7F4FC8010995811117C026
:10179000F80100851185ECCF113009F44EC01330EB
:1017A00091F48F89882309F445C0823081F440E8A0
:1017B00060E184E791E00E945308882321F08EEFD6
:1017C0008093E80079C081E28093EB0075C081309E
:1017D00029F440E86BE088E691E0EDCF833099F79B
:1017E0000E94C808DC011296ED90FC9013978E01C0
:1017F0000F5F1F4F6801E114F10479F0D701ED91FB
:10180000FC910680F781E02DB801C7010995080F0A
:10181000111DF701E084F184EECFD8011C92F6018E
:1018200001900020E9F73197BF016C197D0940E074
:10183000C601C1CF62E571E002C066E571E06115E5
:10184000710509F2FB01449150E080E840CF0FB6EA
:10185000F894A89580916000886180936000109250
:1018600060000FBEA895EE3F2AE0F20739F08091A4
:10187000FE0A9091FF0A91838083A1CF1092FF0A04
:101880001092FE0A9CCFEE3F8AE0F80731F080818B
:1018900091819093FF0A8093FE0A87E797E79183EF
:1018A00080839BE088E10FB6F894A8958093600050
:1018B0000FBE9093600083CF6C960FB6F894DEBF96
:1018C0000FBECDBFDF91CF91FF91EF91BF91AF914F
:1018D0009F918F917F916F915F914F913F912F9148
:1018E0001F910F91FF90EF90DF90CF900F900FBE60
:1018F0000F901F90189590E0FC013197EF30F105A3
:10190000B0F5EB59FF4F0C94AC17809180008F77A6
:1019100003C0809180008F7D809380000895809126
:101920008000877FF9CF84B58F7702C084B58F7D23
:1019300084BD0895809190008F7707C080919000BA
:101940008F7D03C080919000877F809390000895E1
:101950008091C0008F7703C08091C0008F7D8093FD
:10196000C00008958091C200877F8093C2000895CF
:101970001F93CF93DF93282F30E0F901EF52FE4FF2
:101980008491F901EE54FE4FD491F901ED56FE4FCA
:10199000C491CC23C9F0162F81110E947B0CEC2F2F
:1019A000F0E0EE0FFF1FEE5FFE4FA591B4918FB7F1
:1019B000F894111105C09C91ED2FE095E92302C028
:1019C000EC91ED2BEC938FBFDF91CF911F91089598
:1019D000CF93DF9390E0FC01EE54FE4F2491FC0185
:1019E000ED56FE4F8491882361F190E0880F991F96
:1019F000FC01EC50FF4FC591D491FC01EE5FFE4F0E
:101A0000A591B491611109C09FB7F8948881209580
:101A100082238883EC912E230BC0623061F49FB740
:101A2000F8943881822F809583238883EC912E2B24
:101A30002C939FBF06C08FB7F894E8812E2B288384
:101A40008FBFDF91CF910895823108F08251E82F46
:101A5000F0E0E851FF4FE49180917B00E3FB222707
:101A600020F930E095E0220F331F9A95E1F78F7D42
:101A7000282B20937B00E770E064E0937C0080914A
:101A80007A00806480937A0080917A0086FDFCCF92
:101A9000809178002091790090E0922B08958F92A8
:101AA0009F92AF92BF92CF92DF92EF92FF926B0123
:101AB0007C010E9417094B015C01C114D104E104AF
:101AC000F104F1F00E941709DC01CB018819990992
:101AD000AA09BB09883E9340A105B10570F321E036
:101AE000C21AD108E108F10888EE880E83E0981E3A
:101AF000A11CB11CC114D104E104F10419F7DDCF1C
:101B0000FF90EF90DF90CF90BF90AF909F908F901D
:101B100008956F927F929F92AF92BF92CF92DF9281
:101B2000EF92FF920F931F93CF93DF9300D01F92FA
:101B3000CDB7DEB7382F8B018091B002811103C081
:101B40008FEF9FEF8BC08091710180FF05C0809166
:101B5000E00082608093E0003A01F12C8AEFE82EE9
:101B6000832F8770C82E90E4B92E832F8072A82E01
:101B7000832F8074982E2AE3D22E6114710409F405
:101B800066C08FB7F894C092E9009091E80095FF85
:101B900005C09091F2002B2D291B01C020E08FBFC2
:101BA000211110C0EA94EE2059F261E070E080E06B
:101BB00090E039834A835B830E944F0D39814A81CB
:101BC0005B81DBCF822F90E0681679060CF4262D1E
:101BD0006FB7F894C092E9008091E80085FF35C0A6
:101BE000822F90E0681A790AAA2029F02150A8F0E3
:101BF0001092F100FBCFF80137FF07C0215058F0D9
:101C000074917093F1003196F9CF215020F07191C9
:101C10007093F100FACF080F191FFF2019F0D0922E
:101C2000E8000BC08091E80085FD09C0D092E80073
:101C3000FF24F3946114710441F0F12C06C0611487
:101C4000710419F49110D092E8006FBF96CFF11093
:101C500098CF5D9884E68093AE02CA010F900F90F2
:101C60000F90DF91CF911F910F91FF90EF90DF9038
:101C7000CF90BF90AF909F907F906F900895CF933B
:101C8000DF93EC0180913301882331F083E00E94DF
:101C9000890D1816190634F081E090E09B838A8341
:101CA00080E090E0DF91CF9108952FB7F894609194
:101CB00096027091970280919802909199022FBF9D
:101CC00008951F920F920FB60F9211242F933F93F6
:101CD0008F939F93AF93BF938091960290919702B9
:101CE000A0919802B09199023091950223E0230FC0
:101CF0002D3720F40196A11DB11D05C026E8230F44
:101D00000296A11DB11D2093950280939602909397
:101D10009702A0939802B093990280919A029091B1
:101D20009B02A0919C02B0919D020196A11DB11D44
:101D300080939A0290939B02A0939C02B0939D0281
:101D4000BF91AF919F918F913F912F910F900FBEB7
:101D50000F901F901895CF93DF93EC0181E08C8357
:101D60008D839E01265F3F4F3F832E831986188601
:101D700028E331E0398328831C861B861E861D8656
:101D80008F87888B81EC8A870E94C808FC0121819B
:101D90008C8190E0820F911D089774F5A281B38128
:101DA000109719F4D383C2830CC018968D919C911F
:101DB0001997009711F0DC01F8CF1996DC93CE93B8
:101DC000189780818A8381818B8390818D81890F8F
:101DD000808380E09C81891778F4AE81BF81A80F51
:101DE000B11D9C91A181B0E0AF5DBE4F9C939181EC
:101DF0009F5F91838F5FEECFDF91CF910895CF9357
:101E0000DF93E9EDF1E08491EAEBF1E0D491EBE9C5
:101E1000F1E0C491CC2391F081110E947B0CEC2F56
:101E2000F0E0EE0FFF1FEB57FE4FA591B491EC9140
:101E3000ED2381E090E021F480E002C080E090E0BA
:101E4000DF91CF910895E0911A03F0911B03019067
:101E5000F081E02D4FE050E06CE173E08AE193E027
:101E60000994BC01009791F0FC0101900020E9F772
:101E70003197AF01481B590BE091B102F091B202CA
:101E80000280F381E02D81EB92E0099480E090E004
:101E90000895FC018091B002811103C08FEF9FEF84
:101EA00008959FB7F89482E08093E9002091F200B2
:101EB00030E01216130614F421E030E0211531054C
:101EC00059F0289884E68093AF028091F1008083D6
:101ED0008091F200882319F09FBFC90108958BE615
:101EE0008093E800F9CF8F929F92AF92BF920F93A9
:101EF0001F93CF93DF93CDB7DEB7A1970FB6F894BA
:101F0000DEBF0FBECDBF19A2423008F44AE08E01F9
:101F10000F5D1F4F842E912CA12CB12CA501940193
:101F20000E947B17E62FB901CA0101501109EA305E
:101F300014F4E05D01C0E95CD801EC93232B242B61
:101F4000252B61F7C8010E94310FA1960FB6F894B6
:101F5000DEBF0FBECDBFDF91CF911F910F91BF901C
:101F6000AF909F908F900895E091B102F091B202EE
:101F70000190F081E02D682F81EB92E00994789434
:101F800084B5826084BD84B5816084BD85B582607E
:101F900085BD85B5816085BD80916E00816080932F
:101FA0006E00109281008091810082608093810098
:101FB00080918100816080938100809180008160A8
:101FC0008093800080919100826080939100809145
:101FD0009100816080939100809190008160809356
:101FE00090008091C10084608093C1008091C10005
:101FF00082608093C1008091C10081608093C100A4
:102000008091C30081608093C3008091C000826092
:102010008093C0008091C20081608093C200809153
:102020007A00846080937A0080917A008260809345
:102030007A0080917A00816080937A0080917A00A2
:10204000806880937A001092B00210927201109210
:1020500071018091D70081608093D70080EA8093DE
:10206000D80089B5806189BD89B5826089BD09B410
:1020700000FEFDCF61E070E080E090E00E944F0D37
:102080008091D8008F7C80618093D8008091E0009F
:10209000807F8093E0008091E1008E7E8093E1005C
:1020A0008DE08093E200559A209AEEEFFFE785914C
:1020B00094918B3F9C4D19F481E08093700168EE00
:1020C00073E080E090E00E944F0D8FEF9FEF9093C0
:1020D000BE028093BD0261E086E00E94E80CC4E08D
:1020E00061E086E00E94B80C62E370E080E090E07E
:1020F0000E944F0D60E086E00E94B80C62E370E041
:1021000080E090E00E944F0DC15051F761E08AE0FD
:102110000E94E80C61E080E10E94E80C61E08FE041
:102120000E94E80C61E085E00E94E80C61E08DE02F
:102130000E94E80C60E080E10E94B80C60E08FE053
:102140000E94B80C60E085E00E94B80C60E08DE071
:102150000E94B80C64E670E080E090E00E944F0DB1
:102160000E94990460E087E10E94E80C60E088E149
:102170000E94E80C60E08DE10E94E80C60E085E1DF
:102180000E94E80C60E084E10E94E80C10920201D9
:1021900080E090E00E943317853011F00E942E07F6
:1021A0000E941707809101010E94700781E09091C1
:1021B0000201911101C080E00E94540781E09091DA
:1021C0000301911101C080E00E9445078091040144
:1021D000882321F081E08093040102C01092040161
:1021E0000E942E07109274011092730110929D01AB
:1021F0001092BE0110929B01C1E0C0939A0110920F
:10220000750161E082E00E94B80C61E083E00E9409
:10221000B80C8091B9008E7F8093B9008091B9008D
:102220008D7F8093B90088E48093B80085E4809323
:10223000BC00C0939C0184E28093D30110929D0165
:102240001092BE0160E08BE293E00E942302809135
:10225000BE01813208F045C090919B019111FCCFE5
:1022600092E090939B0191E090939A019FEF90935D
:1022700099011092980180939701AEE9B1E027E7A8
:1022800031E0F9019E2F921B981718F49D919193BC
:10229000F9CF10927601809176018864809376015F
:1022A00080917501813061F4109275018091760101
:1022B0008093BB008091BC0083FDF8CF85EC01C00A
:1022C00085EE8093BC0080919B018230E1F3809188
:1022D00099018F3F31F080919901803211F0809106
:1022E000990110929D011092BE0110929C010E94D2
:1022F000E8058091C901882309F48FC088E10E9414
:10230000240D8C014C018DE10E94240DEC011C0177
:102310000E94550E2B013C017E0168010E94550E62
:10232000DC01CB0184199509A609B70980319742D0
:10233000A105B10508F046C061E086E00E94B80C36
:1023400088E10E94240D5C0161E070E080E090E093
:102350000E944F0D8DE10E94240D48018C0C9D1CA4
:1023600097FE03C04FEF841A940A959487949E01B8
:102370002E0D3F1D37FF02C02F5F3F4F19013594CF
:102380002794A016B10608F485018C179D0708F460
:10239000EC01CA14DB0408F46501E816F90608F438
:1023A0007C0164E670E080E090E00E944F0D60E008
:1023B00086E00E94B80C64E670E080E090E00E9445
:1023C0004F0DACCFC818D908E218F308081919093D
:1023D00010930A0100930901C219D309D0930C018B
:1023E000C0930B01D0920E01C0920D01F09210012A
:1023F000E0920F019092060180920501309208014F
:102400002092070181E080931F0182E390E0909386
:102410001E0180931D010E942E078FE0ECE1F3E086
:10242000DF011D928A95E9F7E0911A03F0911B03F1
:102430000190F081E02D4FE050E06CE173E08AE123
:1024400093E00995C0E0D0E011E081EB92E00E94BA
:10245000FD08181619060CF001C181EB92E00E94EC
:102460006209813609F47BC004F5893409F44CC053
:102470004CF4823409F48FC08334F1F1813409F0D3
:10248000EAC076C0863599F1873509F455C08C3499
:1024900009F0E1C064E170E080E090E00E944F0D3F
:1024A0001092150210921402B1C08D3609F4A0C02A
:1024B0008CF4893631F18C3609F4C9C0823609F0C2
:1024C000CAC06091BF0181EB92E00E94DC0860917C
:1024D000C0018FC0833709F47BC0873751F1823741
:1024E00009F0B9C01092D1011092D201B2C060912E
:1024F00018027091190236C060911602709117028D
:1025000031C0609104012DC081EB92E00E94FD0872
:10251000019709F0A0C081EB92E00E94620981332B
:1025200019F41093040102C0109204010E942E07B6
:1025300090C06091020115C081EB92E00E94FD08FD
:10254000019709F088C081EB92E00E946209813313
:1025500011F481E001C080E00E9454077AC06091CC
:10256000030170E080E090E04AE00E94730F76C0C3
:1025700081EB92E00E94FD08019709F06CC081EBAD
:1025800092E00E946209813311F481E001C080E091
:102590000E9445075EC06091D10181EB92E00E94EC
:1025A000DC086091D20181EB92E00E94DC0810927D
:1025B000D1011092D2010E94550E609324027093B3
:1025C000250280932602909327021093280246C08A
:1025D00060911F028091020181116260809103016C
:1025E0008111646080910401882319F0686001C042
:1025F00061E281EB92E00E94DC0830C081EB92E066
:102600000E946209813251F41093140281EB92E02E
:102610000E94FD08181619068CF30BC09091150244
:10262000E92FF0E0EC52FE4F80839F5F90931502FC
:10263000EDCF80911402882339F0D0901502D0FE9E
:1026400070C38CE691E06AC389E691E067C30E949B
:10265000990481E301C08FE30E94B40F0E94550EDC
:10266000C0902902D0902A02E0902B02F0902C0218
:10267000DC01CB018C199D09AE09BF094197A10569
:10268000B10508F4B4C261E086E00E94B80C0E9473
:10269000E80580912802811140C280912A03807F41
:1026A00080932A039091C2019923A1F085608093C1
:1026B0002A039091C301992321F0807F8660809343
:1026C0002A038091C401882351F180912A03807FDD
:1026D000846023C09091C1019923A1F0816080930F
:1026E0002A039091C301992321F0807F8860809311
:1026F0002A038091C401882391F080912A03807F6E
:1027000082600BC09091C301992311F0876005C0CE
:102710009091C401992319F0836080932A0320913A
:10272000C50180911C0390911D03A0911E03B091DF
:102730001F03222311F0816001C08E7F80931C0350
:1027400090931D03A0931E03B0931F032091C60115
:1027500080911C0390911D03A0911E03B0911F0353
:10276000222311F0826001C08D7F80931C0390931F
:102770001D03A0931E03B0931F032091C7018091F6
:102780001C0390911D03A0911E03B0911F032223EF
:1027900011F0846001C08B7F80931C0390931D0314
:1027A000A0931E03B0931F032091C80180911C03C6
:1027B00090911D03A0911E03B0911F03222311F0DD
:1027C000886001C0877F80931C0390931D03A093B2
:1027D0001E03B0931F032091C90180911C039091A7
:1027E0001D03A0911E03B0911F03222311F08061ED
:1027F00001C08F7E80931C0390931D03A0931E0342
:10280000B0931F032091CA0180911C0390911D0376
:10281000A0911E03B0911F03222311F0806201C01A
:102820008F7D80931C0390931D03A0931E03B09390
:102830001F032091CB0180911C0390911D03A09157
:102840001E03B0911F03222311F0806401C08F7B0F
:1028500080931C0390931D03A0931E03B0931F034A
:102860002091CC0180911C0390911D03A0911E0327
:10287000B0911F03222311F0806801C08F778093ED
:102880001C0390931D03A0931E03B0931F0320917C
:10289000CD0180911C0390911D03A0911E03B09166
:1028A0001F03222311F0916001C09E7F80931C03BF
:1028B00090931D03A0931E03B0931F032091CE019C
:1028C00080911C0390911D03A0911E03B0911F03E2
:1028D000222311F0926001C09D7F80931C0390938E
:1028E0001D03A0931E03B0931F032091CF0180917D
:1028F0001C0390911D03A0911E03B0911F0322237E
:1029000011F0946001C09B7F80931C0390931D0382
:10291000A0931E03B0931F032091D00180911C034C
:1029200090911D03A0911E03B0911F03222311F06B
:10293000986001C0977F80931C0390931D03A09320
:102940001E03B0931F0380911F02811102C00E94D9
:10295000230F80911F01882309F4D0C088E10E94D1
:10296000240D7C018DE10E94240D20910501309100
:102970000601F701E21BF30B9F0140910701509103
:1029800008017C01E41AF50AC0901D01D0901E01D7
:10299000CE16DF061CF42C193D090CC08827992798
:1029A0008C199D09E817F9071CF42C0D3D1D02C078
:1029B00020E030E08090090190900A01F2E38F0E50
:1029C000911C092C000CAA08BB08C901330FAA0BE3
:1029D000BB0B9C01AD01281939094A095B09ACE41C
:1029E000BFEF0E94681720910D0130910E01225314
:1029F00031092901330F66087708A30192012819CC
:102A000039094A095B090E94491757FD0EC02D3448
:102A10008FEF3807410551056CF4DA01C901865A78
:102A20009F47A109B1095C0109C02AE5A22E20E84F
:102A3000B22E04C096EAA92E9FE7B92ECE14DF0469
:102A400024F497012C193D090DC0882799278C196A
:102A50009D09E816F90624F497012C0D3D1D02C0CE
:102A600020E030E040900B0150900C01A2E34A0EB0
:102A7000511C052C000C66087708C901330FAA0BFE
:102A8000BB0B9C01AD012419350946095709A4EB7C
:102A9000B0E00E94761720910F013091100122536F
:102AA00031096901330FEE08FF08A70196012419C7
:102AB0003509460957090E944917243B3105BFEFE4
:102AC0004B075B076CF012161306140615065CF034
:102AD000DA01C9018A559048AF4FBF4F9C0105C02C
:102AE0002AE530E802C026EA3FE7B0922103A0922F
:102AF0002003309323032093220308C01092210364
:102B000010922003109223031092220380911F023F
:102B100081111AC00E94230F17C00E94550EC09049
:102B20002402D0902502E0902602F0902702DC01DA
:102B3000CB018C199D09AE09BF09893E9340A105BF
:102B4000B10510F01092280280911F02882309F429
:102B500040C08091C101882319F082E00E94700773
:102B60008091C201882319F081E00E947007809152
:102B7000C501882319F081E00E9454078091C601A5
:102B8000882319F080E00E9454078091C8018823AF
:102B900019F081E00E9445078091C701882319F050
:102BA00080E00E9445078091C901882321F010939D
:102BB00004010E942E078091CA01882321F01092FF
:102BC00004010E942E0768EC70E080E090E00E9413
:102BD0004F0D60E086E00E94B80C0E94550E609395
:102BE000290270932A0280932B0290932C020E9458
:102BF000550EC0902002D0902102E0902202F09069
:102C00002302DC01CB018C199D09AE09BF09893C67
:102C10009105A105B10500F187E10E94240D0597FA
:102C200038F40E94FF0E892B19F010931F0202C086
:102C300010921F0280911F02882321F01092D1016F
:102C40001092D2010E94550E6093200270932102CF
:102C500080932202909323020E94550EC0901B0283
:102C6000D0901C02E0901D02F0901E02DC01CB010E
:102C70008C199D09AE09BF09893E9340A105B10594
:102C8000D0F161E070E080E090E00E944F0D84E1BF
:102C90000E94240D909319028093180261E070E065
:102CA00080E090E00E944F0D85E10E94240D9093FA
:102CB00017028093160261E070E080E090E00E94CD
:102CC0004F0D0E94FF0E20911A02892B39F021111D
:102CD00008C010931A020E94990403C02111109297
:102CE0001A020E94550E60931B0270931C0280937F
:102CF0001D0290931E02209709F4A7CB0E940000AA
:102D0000A4CB00FD16C00F5FBFEFEB1AFB0A0D113D
:102D1000F8CF80E00E94820486E691E00E94310FA5
:102D20009DCC0E94460484EDE82E81E0F82E00E060
:102D3000EECFD7018C91F701319790819A3314F43B
:102D4000905301C097539295907F8A3314F4805327
:102D500001C08753890F013019F40E946804D3CF52
:102D60000E944E04D0CF1092B4021092B30288EEAB
:102D700093E0A0E0B0E08093B5029093B602A093F8
:102D8000B702B093B80284E491E09093B2028093CA
:102D9000B1028FEF9FEF9093BE028093BD0284E556
:102DA00091E090931B0380931A0380913D0381115E
:102DB00013C0109238031092370380EF91E0909384
:102DC0003A038093390380E590E090933C0380932D
:102DD0003B0381E080933D0380911203811107C082
:102DE00081E093E00E94AB0E81E080931203E091BA
:102DF0000C03F0910D03309739F487E393E090933F
:102E00000D0380930C030AC080819181009711F01B
:102E1000FC01FACF87E393E09183808320913B0309
:102E200030913C0380910E0390910F03820F931F0A
:102E300090930F0380930E0310922E0310922D0394
:102E400088EE93E0A0E0B0E080932F0390933003EE
:102E5000A0933103B09332038AE591E090932C0361
:102E600080932B030895F999FECF92BD81BDF89A06
:102E7000992780B50895262FF999FECF1FBA92BDE4
:102E800081BD20BD0FB6F894FA9AF99A0FBE01964B
:102E90000895052E97FB1EF400940E94601757FDBD
:102EA00007D00E947B1707FC03D04EF40C946017E8
:102EB00050954095309521953F4F4F4F5F4F089566
:102EC00090958095709561957F4F8F4F9F4F089596
:102ED0000E949D17A59F900DB49F900DA49F800DFB
:102EE000911D11240895B7FF0C9468170E9468176C
:102EF000821B930B0895A1E21A2EAA1BBB1BFD0196
:102F00000DC0AA1FBB1FEE1FFF1FA217B307E407C8
:102F1000F50720F0A21BB30BE40BF50B661F771F20
:102F2000881F991F1A9469F7609570958095909500
:102F30009B01AC01BD01CF010895A29FB001B39FD9
:102F4000C001A39F700D811D1124911DB29F700DB2
:102F5000811D1124911D0895EE0FFF1F0590F4911E
:102F6000E02D099481E090E0F8940C94B717F89460
:022F7000FFCF91
:102F72000500010100000000000000000000000048
:102F8200000000000000000000000000003200000D
:102F92000000C18081000000FFFFFFFF00E1000090
:102FA20000000000000000004B0192025202720178
:102FB20000000000DC083F0EFD0862093E09F2082D
:102FC20000000000DA02000000002302F301EB011E
:102FD200D701C801C7014C530046310046320000F8
:2070000055C000006EC000006CC000006AC0000068C0000066C0000064C0000062C0000043
:2070200060C000005EC00000F2C400005AC0000058C0000056C0000054C0000052C00000EE
:2070400050C0000078C000004CC000004AC0000048C0000046C0000044C0000042C00000BE
:2070600040C000003EC000003CC000003AC0000038C0000036C0000034C0000032C0000048
:2070800030C000002EC000002CC000002AC0000028C0000026C0000024C0000022C00000A8
:2070A00020C000001EC000001CC0000011241FBECFEFDAE0DEBFCDBF11E0A0E0B1E0E2E3BC
:2070C000FFE702C005900D92A83AB107D9F711E0A8EAB1E001C01D92AE3BB107E1F78FD30B
:2070E00026C78ECFF89410926F0010928100109285001092840081E085BF15BE47985D9AEB
:20710000289A0C94000008952091B2013091B3012F5F3F4F3093B3012093B201932F37FFA6
:2071200003C08EEF831B982F990F921710F447980895479A08951F920F920FB60F9211246E
:207140002F938F939F93EF93FF9310928500109284008091A8019091A901009741F00197D3
:207160009093A9018093A801892B09F45D9A8091AA019091AB01009741F001979093AB0126
:207180008093AA01892B09F4289AE0E0F0E0859194918F5F9F4F49F08091AC019091AD0151
:2071A00001969093AD018093AC01FF91EF919F918F912F910F900FBE0F901F90189584E0BC
:2071C0008093E9000DC08091E8008B778093E80003C08EB3882351F08091E80082FFF9CFBE
:2071E0008091E80085FFEFCF8091F1000895982F83E08093E9008091E80085FD0DC0809136
:20720000E8008E778093E80003C08EB3882369F08091E80080FFF9CF9093F1005D9884E6CB
:2072200090E09093A9018093A80108954F925F926F927F928F929F92AF92BF92CF92DF921E
:20724000EF92FF920F931F93CF93DF9384E08093E9008091E80082FF57C2289884E690E067
:207260009093AB018093AA01AADF182F853481F48CE49DE19093AD018093AC0107B600FC4B
:20728000FDCFF999FECF81E180935700E89503C0843519F494DF8DE00DC28C34E1F38035F9
:2072A000D1F3843721F484E4A2DF80E003C2813611F489E5FFC18134B1F481DF182F7FDFE3
:2072C00090E0880F991FAA2797FDA095BA2F312F330F20E0442737FD4095542F822B932B68
:2072E000A42BB52BB8C1803711F483E5E3C1833549F4C0E0D1E089917ADF21E0C730D20714
:20730000D1F7D9C1863521F481E371DF80E3D2C1833731F487E86BDF85E969DF8EE1CAC149
:207320008536B9F4E0E0F0E093E085E090935700E89507B600FCFDCF80935700E89507B65D
:2073400000FCFDCFE058FF4FA0E7E030FA0771F7A2CF823739F4E1E0F0E089E08093570024
:207360008491A8C1863439F4E0E0F0E089E08093570084919FC18E3439F4E3E0F0E089E0E5
:2073800080935700849196C1813539F4E2E0F0E089E08093570084918DC1823631F489E521
:2073A00026DF80E024DF80E885C1823419F0873609F0E5C01092AD011092AC0100DF082FE8
:2073C000FEDEF82EFCDE682E8554823008F071C1902F80E0CF2DD0E0C82BD92B10926F00B3
:2073E000173609F04BC081E180935700E895DD24CC24C3943FC0E090AE01F090AF010091CC
:20740000B0011091B101B6E46B16D9F4ED2DF0E0EE29FF29E4918E2FEADEDD2081F082E08D
:2074200090E0A0E0B0E0E80EF91E0A1F1B1FE092AE01F092AF010093B0011093B101DC2470
:2074400018C0D801C701B695A7959795879559D5CEDE82E090E0A0E0B0E0E80EF91E0A1FF2
:207460001B1FE092AE01F092AF010093B0011093B1012197209709F0BECF7DC08090AE01F5
:207480009090AF01A090B001B090B10196E4691609F05DC083E0F40180935700E89507B63E
:2074A00000FCFDCF54C0F6E46F1661F5772031F1E090AE01F090AF010091B0011091B1019E
:2074C0007EDED82ECC24852D90E08C299D29F7010C0140925700E895112482E090E0A0E08B
:2074E000B0E0E80EF91E0A1F1B1FE092AE01F092AF010093B0011093B10102C060DE582E1A
:20750000742423C0E090AE01F090AF010091B0011091B10116950795F794E79450DE682FFA
:20752000C701F7D48091AE019091AF01A091B001B091B1010296A11DB11D8093AE01909349
:20754000AF01A093B001B093B101219704C05524772444244394209709F0A5CF96E46916B6
:2075600041F485E0F40180935700E89507B600FCFDCF8DE03CDE82E080936F009CC0833492
:2075800071F40091AE011091AF0119DE90E021E0F8010C0120935700E89511247CCE8336C8
:2075A00019F5E090AE01F090AF010091B0011091B10105DEF701E16090E021E00C0120938C
:2075C0005700E895112482E090E0A0E0B0E0E80EF91E0A1F1B1FE092AE01F092AF0100936A
:2075E000B0011093B10157CE8D3661F4E091AE01F091AF0185E080935700E89507B600FCF2
:20760000FDCF49CE823551F4E091AE01F091AF0105911491812FEBDD802F4CC0843421F5FE
:20762000E090AE01F090AF010091B0011091B10116950795F794E794C2DD682FC70169D4DE
:207640008091AE019091AF01A091B001B091B1010296A11DB11D8093AE019093AF01A093D8
:20766000B001B093B10117CE843609F5E090AE01F090AF010091B0011091B101D801C70142
:20768000B695A795979587953CD4B1DD82E090E0A0E0B0E0E80EF91E0A1F1B1FE092AE010A
:2076A000F092AF010093B0011093B10104C08B3111F08FE39CDD83E08093E9009091E8002B
:2076C0008091E8008E778093E80095FF04C010C08EB38823C9F08091E80080FFF9CF809193
:2076E000E8008E778093E80003C08EB3882361F08091E80080FFF9CF84E08093E9008091F1
:20770000E8008B778093E800DF91CF911F910F91FF90EF90DF90CF90BF90AF909F908F90AC
:207720007F906F905F904F9008959091B601892F8F77813249F58091B7018032A1F081328A
:2077400019F5913A09F58091E800877F8093E8008DE091E067E070E00BD28091E8008B770B
:207760008093E8000895913279F48091E800877F8093E8008DE091E067E070E05DD2809192
:20778000E8008E778093E800089582E061EC42E0B5D083E061E842E1B1D084E060E842E1EF
:2077A000ADC084B7877F84BF88E10FB6F89480936000109260000FBE20E880E090E00FB63F
:2077C000F89420936100809361000FBE81E085BF92E095BF3F9A209A559AE1E6F0E02083A1
:2077E000108247985D9A289A109289008AEF8093880090936F0083E080938100F0C0409116
:20780000000850910108109201081092000894B714BE88E10FB6F8948093600010926000D5
:207820000FBE292F30E0F901E270F07091FD18C090FF05C0859194918F5F9F4F81F423FFFF
:207840000FC08091090190910A014817590741F0E0E0F0E0859194918F5F9F4F09F042DC64
:20786000A0DF78941092AD011092AC010CC0DEDC36D38091AC019091AD0181549F4110F00D
:207880001092140141DC80911401882381F78091E00081608093E00025DC80E090E0089598
:2078A000FA01923049F0933061F09130F9F485E191E022E130E01EC087E291E02EE330E04D
:2078C00019C0882329F485E691E024E030E012C0813029F489E691E022E230E00BC0823006
:2078E00029F48DE891E028E130E004C080E090E020E030E091838083C90108958093E9004E
:207900008091EB0081608093EB001092ED006093EC004093ED008091EE00881F8827881F62
:2079200008958091B60188238CF403C08EB38823B1F08091E80082FFF9CF8091E8008B772A
:207940008093E80008958EB3882349F08091E80080FFF9CF8091E8008E778093E800089594
:20796000EF92FF920F931F9345D04CD008ED10E0F80180818F77808380818068808380819B
:207980008F7D808319BC1EBA1092B40180EEE82EF12CF70180818B7F8083F8018081816052
:2079A000808380E060E042E0A9DFE1EEF0E080818E7F8083E2EEF0E0808181608083808144
:2079C00088608083F70180818E7F8083F8018081806180831F910F91FF90EF900895E7ED06
:2079E000F0E08081816080838AE482BF81E08093B501B6CFE8EDF0E080818E7F808310921C
:207A0000E20008951092DA001092E10008951F920F920FB60F9211242F933F934F935F93F6
:207A20006F937F938F939F93AF93BF93EF93FF938091DA0080FF1BC08091D80080FF17C0B2
:207A40008091DA008E7F8093DA008091D90080FF0BC080E189BD82E189BD09B400FEFDCF36
:207A600081E08EBB3BD203C019BC1EBA37D28091E10080FF17C08091E20080FF13C0809138
:207A8000E2008E7F8093E2008091E20080618093E2008091D80080628093D80019BC85E049
:207AA0008EBB1CD28091E10084FF2CC08091E20084FF28C080E189BD82E189BD09B400FEC5
:207AC000FDCF8091D8008F7D8093D8008091E1008F7E8093E1008091E2008F7E8093E20012
:207AE0008091E20081608093E2008091B401882331F48091E30087FD02C081E001C084E067
:207B00008EBBECD18091E10083FF21C08091E20083FF1DC08091E100877F8093E10082E06A
:207B20008EBB1092B4018091E1008E7F8093E1008091E2008E7F8093E2008091E2008061E9
:207B40008093E20080E060E042E0D8DEC7D1FF91EF91BF91AF919F918F917F916F915F9130
:207B60004F913F912F910F900FBE0F901F9018959C014091BC015091BD014617570718F49D
:207B8000F90190E044C06115710511F0AB01F8CF8091E8008E778093E80040E050E0F0CF0F
:207BA0008EB3882309F444C0853009F443C08091E80083FF02C081E008958091E80082FD70
:207BC00031C08091E80080FF22C08091F3009091F200782F60E0292F30E0262B372B07C07A
:207BE00081918093F100415050402F5F3F4F4115510519F02830310598F390E02830310566
:207C000009F491E08091E8008E778093E8004115510531F6992321F605C08EB3882341F075
:207C2000853041F08091E80082FFF7CF80E0089582E0089583E008959C016115710529F47C
:207C40008091E8008B778093E800F90126C08EB3882391F1853091F18091E80083FF02C06C
:207C600081E008958091E80082FFF1CF06C08091F10081936150704059F02091F300809191
:207C8000F200322F20E090E0822B932B892B79F78091E8008B778093E80061157105B9F601
:207CA00005C08EB3882341F0853041F08091E80080FFF7CF80E0089582E0089583E00895C2
:207CC0000F931F93DF93CF9300D0CDB7DEB7E6EBF1E08091F100819381E0EE3BF807C9F792
:207CE00024DD8091E80083FFE4C08091B6019091B701953009F46DC0963040F4913081F1A7
:207D0000913070F0933009F0D4C02AC0983009F4A3C0993009F4B2C0963009F0CAC07CC023
:207D2000803809F4C6C0823809F0C3C08091BA0187708093E9008091EB001092E9002091DB
:207D4000E800277F2093E80090E025E0969587952A95E1F781708093F1001092F10087C0D8
:207D6000882319F0823009F0A4C08F71823009F0A0C08091B801882331F52091BA01277097
:207D800009F497C02093E9008091EB0080FF1BC0933021F48091EB00806213C08091EB0018
:207DA00080618093EB0081E090E002C0880F991F2A95E2F78093EA001092EA008091EB00E5
:207DC00088608093EB001092E9008091E800877F51C0882309F06DC01091B8011F770FB79B
:207DE000F8948091E800877F8093E8009ADD8091E80080FFFCCF8091E3008078812B809398
:207E0000E30080688093E300112311F482E001C083E08EBB0FBF4DC08058823008F049C033
:207E20008091B8019091B9016091BA01AE014F5F5F4F36DDBC01009709F43BC08091E8008E
:207E4000877F8093E80089819A8192DE8091E8008B778093E8002DC0803859F58091E800AA
:207E6000877F8093E8008091B4018093F1008091E8008E778093E80054DD1BC08823C9F4CA
:207E80009091B8019230A8F48091E800877F8093E8009093B40145DD8091B401882331F420
:207EA0008091E30087FD02C081E001C084E08EBB6CDC8091E80083FF0AC08091EB0080624E
:207EC0008093EB008091E800877F8093E8000F900F90CF91DF911F910F91089508951F9360
:207EE0008EB3882361F01091E9001092E9008091E80083FF01C0E4DE17701093E9001F916F
:207F00000895F999FECF92BD81BDF89A992780B50895262FF999FECF1FBA92BD81BD20BDBD
:207F20000FB6F894FA9AF99A0FBE01960895F894FFCF4341544552494E4100777700080031
:207F40000000000000080112011001020000084123360001000201000109023E00020100FF
:207F600080320904000001020201000524001001042402040524060001070582030800FF0C
:207F800009040100020A000000070504021000010705830210000104030904220341007216
:207FA000006400750069006E006F0020004C0065006F006E006100720064006F0000001836
:1A7FC00003410072006400750069006E006F0020004C004C004300000000D7
:00000001FF
